{
  "_format": "hh-sol-artifact-1",
  "contractName": "zkNews",
  "sourceName": "contracts/zkNews.sol",
  "abi": [
    {
      "inputs": [
        {
          "internalType": "address",
          "name": "_verifier",
          "type": "address"
        }
      ],
      "stateMutability": "nonpayable",
      "type": "constructor"
    },
    {
      "anonymous": false,
      "inputs": [
        {
          "indexed": true,
          "internalType": "uint256",
          "name": "groupId",
          "type": "uint256"
        },
        {
          "indexed": false,
          "internalType": "uint8",
          "name": "depth",
          "type": "uint8"
        },
        {
          "indexed": false,
          "internalType": "uint256",
          "name": "zeroValue",
          "type": "uint256"
        }
      ],
      "name": "GroupCreated",
      "type": "event"
    },
    {
      "anonymous": false,
      "inputs": [
        {
          "indexed": true,
          "internalType": "uint256",
          "name": "identityCommitment",
          "type": "uint256"
        }
      ],
      "name": "IdentityCommitment",
      "type": "event"
    },
    {
      "anonymous": false,
      "inputs": [
        {
          "indexed": true,
          "internalType": "uint256",
          "name": "groupId",
          "type": "uint256"
        },
        {
          "indexed": false,
          "internalType": "uint256",
          "name": "identityCommitment",
          "type": "uint256"
        },
        {
          "indexed": false,
          "internalType": "uint256",
          "name": "root",
          "type": "uint256"
        }
      ],
      "name": "MemberAdded",
      "type": "event"
    },
    {
      "anonymous": false,
      "inputs": [
        {
          "indexed": true,
          "internalType": "uint256",
          "name": "groupId",
          "type": "uint256"
        },
        {
          "indexed": false,
          "internalType": "uint256",
          "name": "identityCommitment",
          "type": "uint256"
        },
        {
          "indexed": false,
          "internalType": "uint256",
          "name": "root",
          "type": "uint256"
        }
      ],
      "name": "MemberRemoved",
      "type": "event"
    },
    {
      "anonymous": false,
      "inputs": [
        {
          "indexed": false,
          "internalType": "bytes32",
          "name": "postId",
          "type": "bytes32"
        }
      ],
      "name": "NewPost",
      "type": "event"
    },
    {
      "anonymous": false,
      "inputs": [
        {
          "indexed": false,
          "internalType": "uint256",
          "name": "nullifierHash",
          "type": "uint256"
        }
      ],
      "name": "NullifierHashAdded",
      "type": "event"
    },
    {
      "anonymous": false,
      "inputs": [
        {
          "indexed": true,
          "internalType": "address",
          "name": "previousOwner",
          "type": "address"
        },
        {
          "indexed": true,
          "internalType": "address",
          "name": "newOwner",
          "type": "address"
        }
      ],
      "name": "OwnershipTransferred",
      "type": "event"
    },
    {
      "anonymous": false,
      "inputs": [
        {
          "indexed": false,
          "internalType": "bytes32",
          "name": "postId",
          "type": "bytes32"
        },
        {
          "indexed": false,
          "internalType": "uint256",
          "name": "dislikes",
          "type": "uint256"
        }
      ],
      "name": "PostDisliked",
      "type": "event"
    },
    {
      "anonymous": false,
      "inputs": [
        {
          "indexed": false,
          "internalType": "bytes32",
          "name": "postId",
          "type": "bytes32"
        },
        {
          "indexed": false,
          "internalType": "uint256",
          "name": "likes",
          "type": "uint256"
        }
      ],
      "name": "PostLiked",
      "type": "event"
    },
    {
      "anonymous": false,
      "inputs": [
        {
          "indexed": false,
          "internalType": "bytes32",
          "name": "signal",
          "type": "bytes32"
        }
      ],
      "name": "Registration",
      "type": "event"
    },
    {
      "anonymous": false,
      "inputs": [
        {
          "indexed": false,
          "internalType": "bytes32",
          "name": "postId",
          "type": "bytes32"
        },
        {
          "indexed": false,
          "internalType": "uint256",
          "name": "balance",
          "type": "uint256"
        }
      ],
      "name": "Withdrawal",
      "type": "event"
    },
    {
      "inputs": [],
      "name": "contractAddress",
      "outputs": [
        {
          "internalType": "address",
          "name": "",
          "type": "address"
        }
      ],
      "stateMutability": "view",
      "type": "function"
    },
    {
      "inputs": [
        {
          "internalType": "bytes32",
          "name": "postId",
          "type": "bytes32"
        },
        {
          "internalType": "bytes32",
          "name": "signal",
          "type": "bytes32"
        },
        {
          "internalType": "uint256",
          "name": "root",
          "type": "uint256"
        },
        {
          "internalType": "uint256",
          "name": "nullifierHash",
          "type": "uint256"
        },
        {
          "internalType": "uint256",
          "name": "externalNullifier",
          "type": "uint256"
        },
        {
          "internalType": "uint256[8]",
          "name": "proof",
          "type": "uint256[8]"
        }
      ],
      "name": "dislikePost",
      "outputs": [
        {
          "internalType": "uint256",
          "name": "",
          "type": "uint256"
        }
      ],
      "stateMutability": "nonpayable",
      "type": "function"
    },
    {
      "inputs": [
        {
          "internalType": "bytes32",
          "name": "postId",
          "type": "bytes32"
        }
      ],
      "name": "fundPost",
      "outputs": [],
      "stateMutability": "payable",
      "type": "function"
    },
    {
      "inputs": [],
      "name": "getAllFunds",
      "outputs": [
        {
          "internalType": "uint256",
          "name": "",
          "type": "uint256"
        }
      ],
      "stateMutability": "view",
      "type": "function"
    },
    {
      "inputs": [
        {
          "internalType": "uint256",
          "name": "groupId",
          "type": "uint256"
        }
      ],
      "name": "getDepth",
      "outputs": [
        {
          "internalType": "uint8",
          "name": "",
          "type": "uint8"
        }
      ],
      "stateMutability": "view",
      "type": "function"
    },
    {
      "inputs": [
        {
          "internalType": "uint256",
          "name": "_index",
          "type": "uint256"
        }
      ],
      "name": "getIdentityCommitment",
      "outputs": [
        {
          "internalType": "uint256",
          "name": "",
          "type": "uint256"
        }
      ],
      "stateMutability": "view",
      "type": "function"
    },
    {
      "inputs": [],
      "name": "getIdentityCommitments",
      "outputs": [
        {
          "internalType": "uint256[]",
          "name": "",
          "type": "uint256[]"
        }
      ],
      "stateMutability": "view",
      "type": "function"
    },
    {
      "inputs": [
        {
          "internalType": "uint256",
          "name": "groupId",
          "type": "uint256"
        }
      ],
      "name": "getNumberOfLeaves",
      "outputs": [
        {
          "internalType": "uint256",
          "name": "",
          "type": "uint256"
        }
      ],
      "stateMutability": "view",
      "type": "function"
    },
    {
      "inputs": [
        {
          "internalType": "bytes32",
          "name": "postId",
          "type": "bytes32"
        }
      ],
      "name": "getPostFunds",
      "outputs": [
        {
          "internalType": "uint256",
          "name": "",
          "type": "uint256"
        }
      ],
      "stateMutability": "view",
      "type": "function"
    },
    {
      "inputs": [
        {
          "internalType": "uint256",
          "name": "groupId",
          "type": "uint256"
        }
      ],
      "name": "getRoot",
      "outputs": [
        {
          "internalType": "uint256",
          "name": "",
          "type": "uint256"
        }
      ],
      "stateMutability": "view",
      "type": "function"
    },
    {
      "inputs": [
        {
          "internalType": "uint256",
          "name": "",
          "type": "uint256"
        }
      ],
      "name": "identityCommitments",
      "outputs": [
        {
          "internalType": "uint256",
          "name": "",
          "type": "uint256"
        }
      ],
      "stateMutability": "view",
      "type": "function"
    },
    {
      "inputs": [
        {
          "internalType": "uint256",
          "name": "_leaf",
          "type": "uint256"
        }
      ],
      "name": "insertIdentityAsClient",
      "outputs": [],
      "stateMutability": "nonpayable",
      "type": "function"
    },
    {
      "inputs": [
        {
          "internalType": "bytes32",
          "name": "postId",
          "type": "bytes32"
        },
        {
          "internalType": "bytes32",
          "name": "signal",
          "type": "bytes32"
        },
        {
          "internalType": "uint256",
          "name": "root",
          "type": "uint256"
        },
        {
          "internalType": "uint256",
          "name": "nullifierHash",
          "type": "uint256"
        },
        {
          "internalType": "uint256",
          "name": "externalNullifier",
          "type": "uint256"
        },
        {
          "internalType": "uint256[8]",
          "name": "proof",
          "type": "uint256[8]"
        }
      ],
      "name": "likePost",
      "outputs": [
        {
          "internalType": "uint256",
          "name": "",
          "type": "uint256"
        }
      ],
      "stateMutability": "nonpayable",
      "type": "function"
    },
    {
      "inputs": [],
      "name": "owner",
      "outputs": [
        {
          "internalType": "address",
          "name": "",
          "type": "address"
        }
      ],
      "stateMutability": "view",
      "type": "function"
    },
    {
      "inputs": [
        {
          "internalType": "bytes32",
          "name": "postId",
          "type": "bytes32"
        },
        {
          "internalType": "uint256",
          "name": "hashCommitment",
          "type": "uint256"
        }
      ],
      "name": "postNews",
      "outputs": [],
      "stateMutability": "nonpayable",
      "type": "function"
    },
    {
      "inputs": [
        {
          "internalType": "bytes32",
          "name": "",
          "type": "bytes32"
        }
      ],
      "name": "posts",
      "outputs": [
        {
          "internalType": "bytes32",
          "name": "postId",
          "type": "bytes32"
        },
        {
          "internalType": "uint256",
          "name": "hashCommitment",
          "type": "uint256"
        },
        {
          "internalType": "uint256",
          "name": "likes",
          "type": "uint256"
        },
        {
          "internalType": "uint256",
          "name": "dislikes",
          "type": "uint256"
        },
        {
          "internalType": "uint256",
          "name": "balance",
          "type": "uint256"
        }
      ],
      "stateMutability": "view",
      "type": "function"
    },
    {
      "inputs": [
        {
          "internalType": "bytes32",
          "name": "signal",
          "type": "bytes32"
        },
        {
          "internalType": "uint256",
          "name": "root",
          "type": "uint256"
        },
        {
          "internalType": "uint256",
          "name": "nullifierHash",
          "type": "uint256"
        },
        {
          "internalType": "uint256",
          "name": "externalNullifier",
          "type": "uint256"
        },
        {
          "internalType": "uint256[8]",
          "name": "proof",
          "type": "uint256[8]"
        }
      ],
      "name": "register",
      "outputs": [],
      "stateMutability": "nonpayable",
      "type": "function"
    },
    {
      "inputs": [],
      "name": "renounceOwnership",
      "outputs": [],
      "stateMutability": "nonpayable",
      "type": "function"
    },
    {
      "inputs": [
        {
          "internalType": "address",
          "name": "newOwner",
          "type": "address"
        }
      ],
      "name": "transferOwnership",
      "outputs": [],
      "stateMutability": "nonpayable",
      "type": "function"
    },
    {
      "inputs": [],
      "name": "verifier",
      "outputs": [
        {
          "internalType": "contract IVerifier",
          "name": "",
          "type": "address"
        }
      ],
      "stateMutability": "view",
      "type": "function"
    },
    {
      "inputs": [
        {
          "internalType": "bytes32",
          "name": "_postId",
          "type": "bytes32"
        },
        {
          "internalType": "uint256",
          "name": "_amount",
          "type": "uint256"
        },
        {
          "internalType": "uint256",
          "name": "_hashCommitment",
          "type": "uint256"
        }
      ],
      "name": "withdrawFunds",
      "outputs": [],
      "stateMutability": "nonpayable",
      "type": "function"
    }
  ],
  "bytecode": "0x608060405230600460006101000a81548173ffffffffffffffffffffffffffffffffffffffff021916908373ffffffffffffffffffffffffffffffffffffffff1602179055503480156200005257600080fd5b5060405162001f3d38038062001f3d8339818101604052810190620000789190620001c5565b620000986200008c620000e060201b60201c565b620000e860201b60201c565b80600360006101000a81548173ffffffffffffffffffffffffffffffffffffffff021916908373ffffffffffffffffffffffffffffffffffffffff160217905550506200024a565b600033905090565b6000600260009054906101000a900473ffffffffffffffffffffffffffffffffffffffff16905081600260006101000a81548173ffffffffffffffffffffffffffffffffffffffff021916908373ffffffffffffffffffffffffffffffffffffffff1602179055508173ffffffffffffffffffffffffffffffffffffffff168173ffffffffffffffffffffffffffffffffffffffff167f8be0079c531659141344cd1fd0a4f28419497f9722a3daafe3b4186f6b6457e060405160405180910390a35050565b600081519050620001bf8162000230565b92915050565b600060208284031215620001de57620001dd6200022b565b5b6000620001ee84828501620001ae565b91505092915050565b600062000204826200020b565b9050919050565b600073ffffffffffffffffffffffffffffffffffffffff82169050919050565b600080fd5b6200023b81620001f7565b81146200024757600080fd5b50565b611ce3806200025a6000396000f3fe60806040526004361061012a5760003560e01c80639173e81f116100ab578063b9c78c2b1161006f578063b9c78c2b1461040b578063bde1061214610448578063d055014314610471578063dff72dec1461049a578063f2fde38b146104db578063f6b4dfb4146105045761012a565b80639173e81f1461030257806395c5267d1461033f5780639b24b3b014610368578063a4cc32c4146103a5578063b30b483f146103ce5761012a565b8063715018a6116100f2578063715018a61461020957806375e618c91461022057806385115d3d1461025d5780638da5cb5b1461029a5780638fd0de57146102c55761012a565b80631c69b4641461012f578063229f463d1461015a5780632b7ac3f3146101765780633476a5ad146101a157806340566790146101de575b600080fd5b34801561013b57600080fd5b5061014461052f565b60405161015191906118b8565b60405180910390f35b610174600480360381019061016f91906111c6565b6105b3565b005b34801561018257600080fd5b5061018b6105e3565b60405161019891906117fd565b60405180910390f35b3480156101ad57600080fd5b506101c860048036038101906101c391906111c6565b610609565b6040516101d591906118b8565b60405180910390f35b3480156101ea57600080fd5b506101f3610629565b6040516102009190611744565b60405180910390f35b34801561021557600080fd5b5061021e610681565b005b34801561022c57600080fd5b5061024760048036038101906102429190611390565b610709565b60405161025491906118d3565b60405180910390f35b34801561026957600080fd5b50610284600480360381019061027f91906111f3565b610736565b60405161029191906118b8565b60405180910390f35b3480156102a657600080fd5b506102af610811565b6040516102bc91906116e2565b60405180910390f35b3480156102d157600080fd5b506102ec60048036038101906102e79190611390565b61083b565b6040516102f991906118b8565b60405180910390f35b34801561030e57600080fd5b50610329600480360381019061032491906111f3565b61085f565b60405161033691906118b8565b60405180910390f35b34801561034b57600080fd5b5061036660048036038101906103619190611281565b61093a565b005b34801561037457600080fd5b5061038f600480360381019061038a9190611390565b6109ed565b60405161039c91906118b8565b60405180910390f35b3480156103b157600080fd5b506103cc60048036038101906103c79190611314565b610a0d565b005b3480156103da57600080fd5b506103f560048036038101906103f09190611390565b610a84565b60405161040291906118b8565b60405180910390f35b34801561041757600080fd5b50610432600480360381019061042d9190611390565b610aac565b60405161043f91906118b8565b60405180910390f35b34801561045457600080fd5b5061046f600480360381019061046a9190611390565b610acc565b005b34801561047d57600080fd5b50610498600480360381019061049391906112c1565b610b25565b005b3480156104a657600080fd5b506104c160048036038101906104bc91906111c6565b610c88565b6040516104d29594939291906117aa565b60405180910390f35b3480156104e757600080fd5b5061050260048036038101906104fd9190611199565b610cbe565b005b34801561051057600080fd5b50610519610db6565b60405161052691906116e2565b60405180910390f35b6000610539610ddc565b73ffffffffffffffffffffffffffffffffffffffff16610557610811565b73ffffffffffffffffffffffffffffffffffffffff16146105ad576040517f08c379a00000000000000000000000000000000000000000000000000000000081526004016105a490611898565b60405180910390fd5b47905090565b346006600083815260200190815260200160002060040160008282546105d991906119ca565b9250508190555050565b600360009054906101000a900473ffffffffffffffffffffffffffffffffffffffff1681565b600060066000838152602001908152602001600020600401549050919050565b6060600580548060200260200160405190810160405280929190818152602001828054801561067757602002820191906000526020600020905b815481526020019060010190808311610663575b5050505050905090565b610689610ddc565b73ffffffffffffffffffffffffffffffffffffffff166106a7610811565b73ffffffffffffffffffffffffffffffffffffffff16146106fd576040517f08c379a00000000000000000000000000000000000000000000000000000000081526004016106f490611898565b60405180910390fd5b6107076000610de4565b565b60006001600083815260200190815260200160002060000160009054906101000a900460ff169050919050565b60006107688686868686600360009054906101000a900473ffffffffffffffffffffffffffffffffffffffff16610eaa565b600160066000898152602001908152602001600020600301600082825461078f91906119ca565b9250508190555061079f846110d3565b7f0f571fcde2131c4b8accf487ffb9c72ae528b2cfff5aea2de932d57fe9347aa087600660008a8152602001908152602001600020600301546040516107e6929190611781565b60405180910390a1600660008881526020019081526020016000206003015490509695505050505050565b6000600260009054906101000a900473ffffffffffffffffffffffffffffffffffffffff16905090565b6005818154811061084b57600080fd5b906000526020600020016000915090505481565b60006108918686868686600360009054906101000a900473ffffffffffffffffffffffffffffffffffffffff16610eaa565b60016006600089815260200190815260200160002060020160008282546108b891906119ca565b925050819055506108c8846110d3565b7fcaf9bfec47e3c7f8879f6eb731faf23a2dc50c5424a1dc61982bba2b26c2004587600660008a81526020019081526020016000206002015460405161090f929190611781565b60405180910390a1600660008881526020019081526020016000206002015490509695505050505050565b60006040518060a00160405280848152602001838152602001600081526020016000815260200160008152509050806006600085815260200190815260200160002060008201518160000155602082015181600101556040820151816002015560608201518160030155608082015181600401559050507f89afc73d9070642128ac1a96ea8f614d69e6274b88e568817c5ab86d217bed5a836040516109e09190611766565b60405180910390a1505050565b600060016000838152602001908152602001600020600101549050919050565b610a3d8585858585600360009054906101000a900473ffffffffffffffffffffffffffffffffffffffff16610eaa565b610a46836110d3565b7fb9a5c167b9c0465bcbeee18d1b0d37a9a82813f8262486cee744967849901e2285604051610a759190611766565b60405180910390a15050505050565b600060058281548110610a9a57610a99611b16565b5b90600052602060002001549050919050565b600060016000838152602001908152602001600020600201549050919050565b6005819080600181540180825580915050600190039060005260206000200160009091909190915055807f31d0d431762af1b333d4fef318e03efc7b702fe91dd1f0aa2c72e699bebcb48960405160405180910390a250565b6006600084815260200190815260200160002060040154821115610b7e576040517f08c379a0000000000000000000000000000000000000000000000000000000008152600401610b7590611858565b60405180910390fd5b60066000848152602001908152602001600020600101548114610bd6576040517f08c379a0000000000000000000000000000000000000000000000000000000008152600401610bcd90611878565b60405180910390fd5b3373ffffffffffffffffffffffffffffffffffffffff166108fc839081150290604051600060405180830381858888f19350505050158015610c1c573d6000803e3d6000fd5b5081600660008581526020019081526020016000206004016000828254610c439190611a20565b925050819055507fa4dfdde26c326c8cced668e6a665f4efc3f278bdc9101cdedc4f725abd63a1ee8383604051610c7b929190611781565b60405180910390a1505050565b60066020528060005260406000206000915090508060000154908060010154908060020154908060030154908060040154905085565b610cc6610ddc565b73ffffffffffffffffffffffffffffffffffffffff16610ce4610811565b73ffffffffffffffffffffffffffffffffffffffff1614610d3a576040517f08c379a0000000000000000000000000000000000000000000000000000000008152600401610d3190611898565b60405180910390fd5b600073ffffffffffffffffffffffffffffffffffffffff168173ffffffffffffffffffffffffffffffffffffffff161415610daa576040517f08c379a0000000000000000000000000000000000000000000000000000000008152600401610da190611838565b60405180910390fd5b610db381610de4565b50565b600460009054906101000a900473ffffffffffffffffffffffffffffffffffffffff1681565b600033905090565b6000600260009054906101000a900473ffffffffffffffffffffffffffffffffffffffff16905081600260006101000a81548173ffffffffffffffffffffffffffffffffffffffff021916908373ffffffffffffffffffffffffffffffffffffffff1602179055508173ffffffffffffffffffffffffffffffffffffffff168173ffffffffffffffffffffffffffffffffffffffff167f8be0079c531659141344cd1fd0a4f28419497f9722a3daafe3b4186f6b6457e060405160405180910390a35050565b60008085815260200190815260200160002060009054906101000a900460ff1615610f0a576040517f08c379a0000000000000000000000000000000000000000000000000000000008152600401610f0190611818565b60405180910390fd5b6000610f1587611101565b90508173ffffffffffffffffffffffffffffffffffffffff16635fe8c13b604051806040016040528086600060088110610f5257610f51611b16565b5b6020020135815260200186600160088110610f7057610f6f611b16565b5b60200201358152506040518060400160405280604051806040016040528089600260088110610fa257610fa1611b16565b5b6020020135815260200189600360088110610fc057610fbf611b16565b5b60200201358152508152602001604051806040016040528089600460088110610fec57610feb611b16565b5b602002013581526020018960056008811061100a57611009611b16565b5b602002013581525081525060405180604001604052808860066008811061103457611033611b16565b5b602002013581526020018860076008811061105257611051611b16565b5b602002013581525060405180608001604052808c81526020018b81526020018781526020018a8152506040518563ffffffff1660e01b815260040161109a94939291906116fd565b60006040518083038186803b1580156110b257600080fd5b505afa1580156110c6573d6000803e3d6000fd5b5050505050505050505050565b600160008083815260200190815260200160002060006101000a81548160ff02191690831515021790555050565b600060088260405160200161111691906116c7565b6040516020818303038152906040528051906020012060001c901c9050919050565b60008135905061114781611c68565b92915050565b60008190508260206008028201111561116957611168611b45565b5b92915050565b60008135905061117e81611c7f565b92915050565b60008135905061119381611c96565b92915050565b6000602082840312156111af576111ae611b4a565b5b60006111bd84828501611138565b91505092915050565b6000602082840312156111dc576111db611b4a565b5b60006111ea8482850161116f565b91505092915050565b6000806000806000806101a0878903121561121157611210611b4a565b5b600061121f89828a0161116f565b965050602061123089828a0161116f565b955050604061124189828a01611184565b945050606061125289828a01611184565b935050608061126389828a01611184565b92505060a061127489828a0161114d565b9150509295509295509295565b6000806040838503121561129857611297611b4a565b5b60006112a68582860161116f565b92505060206112b785828601611184565b9150509250929050565b6000806000606084860312156112da576112d9611b4a565b5b60006112e88682870161116f565b93505060206112f986828701611184565b925050604061130a86828701611184565b9150509250925092565b6000806000806000610180868803121561133157611330611b4a565b5b600061133f8882890161116f565b955050602061135088828901611184565b945050604061136188828901611184565b935050606061137288828901611184565b92505060806113838882890161114d565b9150509295509295909350565b6000602082840312156113a6576113a5611b4a565b5b60006113b484828501611184565b91505092915050565b60006113c98383611453565b60408301905092915050565b60006113e1838361169a565b60208301905092915050565b6113f681611a54565b82525050565b6114058161191c565b61140f818461197c565b925061141a826118ee565b8060005b8381101561144b57815161143287826113bd565b965061143d83611948565b92505060018101905061141e565b505050505050565b61145c81611927565b6114668184611987565b9250611471826118f8565b8060005b838110156114a257815161148987826113d5565b965061149483611955565b925050600181019050611475565b505050505050565b6114b381611927565b6114bd8184611992565b92506114c8826118f8565b8060005b838110156114f95781516114e087826113d5565b96506114eb83611955565b9250506001810190506114cc565b505050505050565b61150a81611932565b611514818461199d565b925061151f82611902565b8060005b8381101561155057815161153787826113d5565b965061154283611962565b925050600181019050611523565b505050505050565b60006115638261193d565b61156d81856119a8565b93506115788361190c565b8060005b838110156115a957815161159088826113d5565b975061159b8361196f565b92505060018101905061157c565b5085935050505092915050565b6115bf81611a66565b82525050565b6115d66115d182611a66565b611add565b82525050565b6115e581611aa7565b82525050565b60006115f86036836119b9565b915061160382611b4f565b604082019050919050565b600061161b6026836119b9565b915061162682611b9e565b604082019050919050565b600061163e6012836119b9565b915061164982611bed565b602082019050919050565b6000611661601c836119b9565b915061166c82611c16565b602082019050919050565b60006116846020836119b9565b915061168f82611c3f565b602082019050919050565b6116a381611a90565b82525050565b6116b281611a90565b82525050565b6116c181611a9a565b82525050565b60006116d382846115c5565b60208201915081905092915050565b60006020820190506116f760008301846113ed565b92915050565b60006101808201905061171360008301876114aa565b61172060408301866113fc565b61172d60c08301856114aa565b61173b610100830184611501565b95945050505050565b6000602082019050818103600083015261175e8184611558565b905092915050565b600060208201905061177b60008301846115b6565b92915050565b600060408201905061179660008301856115b6565b6117a360208301846116a9565b9392505050565b600060a0820190506117bf60008301886115b6565b6117cc60208301876116a9565b6117d960408301866116a9565b6117e660608301856116a9565b6117f360808301846116a9565b9695505050505050565b600060208201905061181260008301846115dc565b92915050565b60006020820190508181036000830152611831816115eb565b9050919050565b600060208201905081810360008301526118518161160e565b9050919050565b6000602082019050818103600083015261187181611631565b9050919050565b6000602082019050818103600083015261189181611654565b9050919050565b600060208201905081810360008301526118b181611677565b9050919050565b60006020820190506118cd60008301846116a9565b92915050565b60006020820190506118e860008301846116b8565b92915050565b6000819050919050565b6000819050919050565b6000819050919050565b6000819050602082019050919050565b600060029050919050565b600060029050919050565b600060049050919050565b600081519050919050565b6000602082019050919050565b6000602082019050919050565b6000602082019050919050565b6000602082019050919050565b600081905092915050565b600081905092915050565b600081905092915050565b600081905092915050565b600082825260208201905092915050565b600082825260208201905092915050565b60006119d582611a90565b91506119e083611a90565b9250827fffffffffffffffffffffffffffffffffffffffffffffffffffffffffffffffff03821115611a1557611a14611ae7565b5b828201905092915050565b6000611a2b82611a90565b9150611a3683611a90565b925082821015611a4957611a48611ae7565b5b828203905092915050565b6000611a5f82611a70565b9050919050565b6000819050919050565b600073ffffffffffffffffffffffffffffffffffffffff82169050919050565b6000819050919050565b600060ff82169050919050565b6000611ab282611ab9565b9050919050565b6000611ac482611acb565b9050919050565b6000611ad682611a70565b9050919050565b6000819050919050565b7f4e487b7100000000000000000000000000000000000000000000000000000000600052601160045260246000fd5b7f4e487b7100000000000000000000000000000000000000000000000000000000600052603260045260246000fd5b600080fd5b600080fd5b7f53656d6170686f7265436f72653a20796f752063616e6e6f742075736520746860008201527f652073616d65206e756c6c696669657220747769636500000000000000000000602082015250565b7f4f776e61626c653a206e6577206f776e657220697320746865207a65726f206160008201527f6464726573730000000000000000000000000000000000000000000000000000602082015250565b7f4e6f7420656e6f7567682062616c616e63650000000000000000000000000000600082015250565b7f596f75722068617368636f6d6d69746d656e742069732077726f6e6700000000600082015250565b7f4f776e61626c653a2063616c6c6572206973206e6f7420746865206f776e6572600082015250565b611c7181611a54565b8114611c7c57600080fd5b50565b611c8881611a66565b8114611c9357600080fd5b50565b611c9f81611a90565b8114611caa57600080fd5b5056fea2646970667358221220b0bdd94103ad98a2c79b6a4805bafad329251513f208fc3a4eb9633f49271e7964736f6c63430008070033",
  "linkReferences": {},
  "deployedLinkReferences": {}
}