{
  "contracts/zkNews.sol": {
    "zkNews": {
      "abi": [
        {
          "inputs": [
            {
              "internalType": "address",
              "name": "_verifier",
              "type": "address"
            }
          ],
          "stateMutability": "nonpayable",
          "type": "constructor"
        },
        {
          "anonymous": false,
          "inputs": [
            {
              "indexed": true,
              "internalType": "uint256",
              "name": "groupId",
              "type": "uint256"
            },
            {
              "indexed": false,
              "internalType": "uint8",
              "name": "depth",
              "type": "uint8"
            },
            {
              "indexed": false,
              "internalType": "uint256",
              "name": "zeroValue",
              "type": "uint256"
            }
          ],
          "name": "GroupCreated",
          "type": "event"
        },
        {
          "anonymous": false,
          "inputs": [
            {
              "indexed": true,
              "internalType": "uint256",
              "name": "identityCommitment",
              "type": "uint256"
            }
          ],
          "name": "IdentityCommitment",
          "type": "event"
        },
        {
          "anonymous": false,
          "inputs": [
            {
              "indexed": true,
              "internalType": "uint256",
              "name": "groupId",
              "type": "uint256"
            },
            {
              "indexed": false,
              "internalType": "uint256",
              "name": "identityCommitment",
              "type": "uint256"
            },
            {
              "indexed": false,
              "internalType": "uint256",
              "name": "root",
              "type": "uint256"
            }
          ],
          "name": "MemberAdded",
          "type": "event"
        },
        {
          "anonymous": false,
          "inputs": [
            {
              "indexed": true,
              "internalType": "uint256",
              "name": "groupId",
              "type": "uint256"
            },
            {
              "indexed": false,
              "internalType": "uint256",
              "name": "identityCommitment",
              "type": "uint256"
            },
            {
              "indexed": false,
              "internalType": "uint256",
              "name": "root",
              "type": "uint256"
            }
          ],
          "name": "MemberRemoved",
          "type": "event"
        },
        {
          "anonymous": false,
          "inputs": [
            {
              "indexed": false,
              "internalType": "bytes32",
              "name": "postId",
              "type": "bytes32"
            }
          ],
          "name": "NewPost",
          "type": "event"
        },
        {
          "anonymous": false,
          "inputs": [
            {
              "indexed": false,
              "internalType": "uint256",
              "name": "nullifierHash",
              "type": "uint256"
            }
          ],
          "name": "NullifierHashAdded",
          "type": "event"
        },
        {
          "anonymous": false,
          "inputs": [
            {
              "indexed": true,
              "internalType": "address",
              "name": "previousOwner",
              "type": "address"
            },
            {
              "indexed": true,
              "internalType": "address",
              "name": "newOwner",
              "type": "address"
            }
          ],
          "name": "OwnershipTransferred",
          "type": "event"
        },
        {
          "anonymous": false,
          "inputs": [
            {
              "indexed": false,
              "internalType": "bytes32",
              "name": "postId",
              "type": "bytes32"
            },
            {
              "indexed": false,
              "internalType": "uint256",
              "name": "dislikes",
              "type": "uint256"
            }
          ],
          "name": "PostDisliked",
          "type": "event"
        },
        {
          "anonymous": false,
          "inputs": [
            {
              "indexed": false,
              "internalType": "bytes32",
              "name": "postId",
              "type": "bytes32"
            },
            {
              "indexed": false,
              "internalType": "uint256",
              "name": "likes",
              "type": "uint256"
            }
          ],
          "name": "PostLiked",
          "type": "event"
        },
        {
          "anonymous": false,
          "inputs": [
            {
              "indexed": false,
              "internalType": "bytes32",
              "name": "signal",
              "type": "bytes32"
            }
          ],
          "name": "Registration",
          "type": "event"
        },
        {
          "anonymous": false,
          "inputs": [
            {
              "indexed": false,
              "internalType": "bytes32",
              "name": "postId",
              "type": "bytes32"
            },
            {
              "indexed": false,
              "internalType": "uint256",
              "name": "balance",
              "type": "uint256"
            }
          ],
          "name": "Withdrawal",
          "type": "event"
        },
        {
          "inputs": [],
          "name": "contractAddress",
          "outputs": [
            {
              "internalType": "address",
              "name": "",
              "type": "address"
            }
          ],
          "stateMutability": "view",
          "type": "function"
        },
        {
          "inputs": [
            {
              "internalType": "bytes32",
              "name": "postId",
              "type": "bytes32"
            },
            {
              "internalType": "bytes32",
              "name": "signal",
              "type": "bytes32"
            },
            {
              "internalType": "uint256",
              "name": "root",
              "type": "uint256"
            },
            {
              "internalType": "uint256",
              "name": "nullifierHash",
              "type": "uint256"
            },
            {
              "internalType": "uint256",
              "name": "externalNullifier",
              "type": "uint256"
            },
            {
              "internalType": "uint256[8]",
              "name": "proof",
              "type": "uint256[8]"
            }
          ],
          "name": "dislikePost",
          "outputs": [
            {
              "internalType": "uint256",
              "name": "",
              "type": "uint256"
            }
          ],
          "stateMutability": "nonpayable",
          "type": "function"
        },
        {
          "inputs": [
            {
              "internalType": "bytes32",
              "name": "postId",
              "type": "bytes32"
            }
          ],
          "name": "fundPost",
          "outputs": [],
          "stateMutability": "payable",
          "type": "function"
        },
        {
          "inputs": [],
          "name": "getAllFunds",
          "outputs": [
            {
              "internalType": "uint256",
              "name": "",
              "type": "uint256"
            }
          ],
          "stateMutability": "view",
          "type": "function"
        },
        {
          "inputs": [
            {
              "internalType": "uint256",
              "name": "groupId",
              "type": "uint256"
            }
          ],
          "name": "getDepth",
          "outputs": [
            {
              "internalType": "uint8",
              "name": "",
              "type": "uint8"
            }
          ],
          "stateMutability": "view",
          "type": "function"
        },
        {
          "inputs": [
            {
              "internalType": "uint256",
              "name": "_index",
              "type": "uint256"
            }
          ],
          "name": "getIdentityCommitment",
          "outputs": [
            {
              "internalType": "uint256",
              "name": "",
              "type": "uint256"
            }
          ],
          "stateMutability": "view",
          "type": "function"
        },
        {
          "inputs": [],
          "name": "getIdentityCommitments",
          "outputs": [
            {
              "internalType": "uint256[]",
              "name": "",
              "type": "uint256[]"
            }
          ],
          "stateMutability": "view",
          "type": "function"
        },
        {
          "inputs": [
            {
              "internalType": "uint256",
              "name": "groupId",
              "type": "uint256"
            }
          ],
          "name": "getNumberOfLeaves",
          "outputs": [
            {
              "internalType": "uint256",
              "name": "",
              "type": "uint256"
            }
          ],
          "stateMutability": "view",
          "type": "function"
        },
        {
          "inputs": [
            {
              "internalType": "bytes32",
              "name": "postId",
              "type": "bytes32"
            }
          ],
          "name": "getPostFunds",
          "outputs": [
            {
              "internalType": "uint256",
              "name": "",
              "type": "uint256"
            }
          ],
          "stateMutability": "view",
          "type": "function"
        },
        {
          "inputs": [
            {
              "internalType": "uint256",
              "name": "groupId",
              "type": "uint256"
            }
          ],
          "name": "getRoot",
          "outputs": [
            {
              "internalType": "uint256",
              "name": "",
              "type": "uint256"
            }
          ],
          "stateMutability": "view",
          "type": "function"
        },
        {
          "inputs": [
            {
              "internalType": "uint256",
              "name": "",
              "type": "uint256"
            }
          ],
          "name": "identityCommitments",
          "outputs": [
            {
              "internalType": "uint256",
              "name": "",
              "type": "uint256"
            }
          ],
          "stateMutability": "view",
          "type": "function"
        },
        {
          "inputs": [
            {
              "internalType": "uint256",
              "name": "_leaf",
              "type": "uint256"
            }
          ],
          "name": "insertIdentityAsClient",
          "outputs": [],
          "stateMutability": "nonpayable",
          "type": "function"
        },
        {
          "inputs": [
            {
              "internalType": "bytes32",
              "name": "postId",
              "type": "bytes32"
            },
            {
              "internalType": "bytes32",
              "name": "signal",
              "type": "bytes32"
            },
            {
              "internalType": "uint256",
              "name": "root",
              "type": "uint256"
            },
            {
              "internalType": "uint256",
              "name": "nullifierHash",
              "type": "uint256"
            },
            {
              "internalType": "uint256",
              "name": "externalNullifier",
              "type": "uint256"
            },
            {
              "internalType": "uint256[8]",
              "name": "proof",
              "type": "uint256[8]"
            }
          ],
          "name": "likePost",
          "outputs": [
            {
              "internalType": "uint256",
              "name": "",
              "type": "uint256"
            }
          ],
          "stateMutability": "nonpayable",
          "type": "function"
        },
        {
          "inputs": [],
          "name": "owner",
          "outputs": [
            {
              "internalType": "address",
              "name": "",
              "type": "address"
            }
          ],
          "stateMutability": "view",
          "type": "function"
        },
        {
          "inputs": [
            {
              "internalType": "bytes32",
              "name": "postId",
              "type": "bytes32"
            },
            {
              "internalType": "uint256",
              "name": "hashCommitment",
              "type": "uint256"
            }
          ],
          "name": "postNews",
          "outputs": [],
          "stateMutability": "nonpayable",
          "type": "function"
        },
        {
          "inputs": [
            {
              "internalType": "bytes32",
              "name": "",
              "type": "bytes32"
            }
          ],
          "name": "posts",
          "outputs": [
            {
              "internalType": "bytes32",
              "name": "postId",
              "type": "bytes32"
            },
            {
              "internalType": "uint256",
              "name": "hashCommitment",
              "type": "uint256"
            },
            {
              "internalType": "uint256",
              "name": "likes",
              "type": "uint256"
            },
            {
              "internalType": "uint256",
              "name": "dislikes",
              "type": "uint256"
            },
            {
              "internalType": "uint256",
              "name": "balance",
              "type": "uint256"
            }
          ],
          "stateMutability": "view",
          "type": "function"
        },
        {
          "inputs": [
            {
              "internalType": "bytes32",
              "name": "signal",
              "type": "bytes32"
            },
            {
              "internalType": "uint256",
              "name": "root",
              "type": "uint256"
            },
            {
              "internalType": "uint256",
              "name": "nullifierHash",
              "type": "uint256"
            },
            {
              "internalType": "uint256",
              "name": "externalNullifier",
              "type": "uint256"
            },
            {
              "internalType": "uint256[8]",
              "name": "proof",
              "type": "uint256[8]"
            }
          ],
          "name": "register",
          "outputs": [],
          "stateMutability": "nonpayable",
          "type": "function"
        },
        {
          "inputs": [],
          "name": "renounceOwnership",
          "outputs": [],
          "stateMutability": "nonpayable",
          "type": "function"
        },
        {
          "inputs": [
            {
              "internalType": "address",
              "name": "newOwner",
              "type": "address"
            }
          ],
          "name": "transferOwnership",
          "outputs": [],
          "stateMutability": "nonpayable",
          "type": "function"
        },
        {
          "inputs": [],
          "name": "verifier",
          "outputs": [
            {
              "internalType": "contract IVerifier",
              "name": "",
              "type": "address"
            }
          ],
          "stateMutability": "view",
          "type": "function"
        },
        {
          "inputs": [
            {
              "internalType": "bytes32",
              "name": "_postId",
              "type": "bytes32"
            },
            {
              "internalType": "uint256",
              "name": "_amount",
              "type": "uint256"
            },
            {
              "internalType": "uint256",
              "name": "_hashCommitment",
              "type": "uint256"
            }
          ],
          "name": "withdrawFunds",
          "outputs": [],
          "stateMutability": "nonpayable",
          "type": "function"
        }
      ],
      "evm": {
        "bytecode": {
          "linkReferences": {},
          "object": "608060405230600460006101000a81548173ffffffffffffffffffffffffffffffffffffffff021916908373ffffffffffffffffffffffffffffffffffffffff1602179055503480156200005257600080fd5b5060405162001f3d38038062001f3d8339818101604052810190620000789190620001c5565b620000986200008c620000e060201b60201c565b620000e860201b60201c565b80600360006101000a81548173ffffffffffffffffffffffffffffffffffffffff021916908373ffffffffffffffffffffffffffffffffffffffff160217905550506200024a565b600033905090565b6000600260009054906101000a900473ffffffffffffffffffffffffffffffffffffffff16905081600260006101000a81548173ffffffffffffffffffffffffffffffffffffffff021916908373ffffffffffffffffffffffffffffffffffffffff1602179055508173ffffffffffffffffffffffffffffffffffffffff168173ffffffffffffffffffffffffffffffffffffffff167f8be0079c531659141344cd1fd0a4f28419497f9722a3daafe3b4186f6b6457e060405160405180910390a35050565b600081519050620001bf8162000230565b92915050565b600060208284031215620001de57620001dd6200022b565b5b6000620001ee84828501620001ae565b91505092915050565b600062000204826200020b565b9050919050565b600073ffffffffffffffffffffffffffffffffffffffff82169050919050565b600080fd5b6200023b81620001f7565b81146200024757600080fd5b50565b611ce3806200025a6000396000f3fe60806040526004361061012a5760003560e01c80639173e81f116100ab578063b9c78c2b1161006f578063b9c78c2b1461040b578063bde1061214610448578063d055014314610471578063dff72dec1461049a578063f2fde38b146104db578063f6b4dfb4146105045761012a565b80639173e81f1461030257806395c5267d1461033f5780639b24b3b014610368578063a4cc32c4146103a5578063b30b483f146103ce5761012a565b8063715018a6116100f2578063715018a61461020957806375e618c91461022057806385115d3d1461025d5780638da5cb5b1461029a5780638fd0de57146102c55761012a565b80631c69b4641461012f578063229f463d1461015a5780632b7ac3f3146101765780633476a5ad146101a157806340566790146101de575b600080fd5b34801561013b57600080fd5b5061014461052f565b60405161015191906118b8565b60405180910390f35b610174600480360381019061016f91906111c6565b6105b3565b005b34801561018257600080fd5b5061018b6105e3565b60405161019891906117fd565b60405180910390f35b3480156101ad57600080fd5b506101c860048036038101906101c391906111c6565b610609565b6040516101d591906118b8565b60405180910390f35b3480156101ea57600080fd5b506101f3610629565b6040516102009190611744565b60405180910390f35b34801561021557600080fd5b5061021e610681565b005b34801561022c57600080fd5b5061024760048036038101906102429190611390565b610709565b60405161025491906118d3565b60405180910390f35b34801561026957600080fd5b50610284600480360381019061027f91906111f3565b610736565b60405161029191906118b8565b60405180910390f35b3480156102a657600080fd5b506102af610811565b6040516102bc91906116e2565b60405180910390f35b3480156102d157600080fd5b506102ec60048036038101906102e79190611390565b61083b565b6040516102f991906118b8565b60405180910390f35b34801561030e57600080fd5b50610329600480360381019061032491906111f3565b61085f565b60405161033691906118b8565b60405180910390f35b34801561034b57600080fd5b5061036660048036038101906103619190611281565b61093a565b005b34801561037457600080fd5b5061038f600480360381019061038a9190611390565b6109ed565b60405161039c91906118b8565b60405180910390f35b3480156103b157600080fd5b506103cc60048036038101906103c79190611314565b610a0d565b005b3480156103da57600080fd5b506103f560048036038101906103f09190611390565b610a84565b60405161040291906118b8565b60405180910390f35b34801561041757600080fd5b50610432600480360381019061042d9190611390565b610aac565b60405161043f91906118b8565b60405180910390f35b34801561045457600080fd5b5061046f600480360381019061046a9190611390565b610acc565b005b34801561047d57600080fd5b50610498600480360381019061049391906112c1565b610b25565b005b3480156104a657600080fd5b506104c160048036038101906104bc91906111c6565b610c88565b6040516104d29594939291906117aa565b60405180910390f35b3480156104e757600080fd5b5061050260048036038101906104fd9190611199565b610cbe565b005b34801561051057600080fd5b50610519610db6565b60405161052691906116e2565b60405180910390f35b6000610539610ddc565b73ffffffffffffffffffffffffffffffffffffffff16610557610811565b73ffffffffffffffffffffffffffffffffffffffff16146105ad576040517f08c379a00000000000000000000000000000000000000000000000000000000081526004016105a490611898565b60405180910390fd5b47905090565b346006600083815260200190815260200160002060040160008282546105d991906119ca565b9250508190555050565b600360009054906101000a900473ffffffffffffffffffffffffffffffffffffffff1681565b600060066000838152602001908152602001600020600401549050919050565b6060600580548060200260200160405190810160405280929190818152602001828054801561067757602002820191906000526020600020905b815481526020019060010190808311610663575b5050505050905090565b610689610ddc565b73ffffffffffffffffffffffffffffffffffffffff166106a7610811565b73ffffffffffffffffffffffffffffffffffffffff16146106fd576040517f08c379a00000000000000000000000000000000000000000000000000000000081526004016106f490611898565b60405180910390fd5b6107076000610de4565b565b60006001600083815260200190815260200160002060000160009054906101000a900460ff169050919050565b60006107688686868686600360009054906101000a900473ffffffffffffffffffffffffffffffffffffffff16610eaa565b600160066000898152602001908152602001600020600301600082825461078f91906119ca565b9250508190555061079f846110d3565b7f0f571fcde2131c4b8accf487ffb9c72ae528b2cfff5aea2de932d57fe9347aa087600660008a8152602001908152602001600020600301546040516107e6929190611781565b60405180910390a1600660008881526020019081526020016000206003015490509695505050505050565b6000600260009054906101000a900473ffffffffffffffffffffffffffffffffffffffff16905090565b6005818154811061084b57600080fd5b906000526020600020016000915090505481565b60006108918686868686600360009054906101000a900473ffffffffffffffffffffffffffffffffffffffff16610eaa565b60016006600089815260200190815260200160002060020160008282546108b891906119ca565b925050819055506108c8846110d3565b7fcaf9bfec47e3c7f8879f6eb731faf23a2dc50c5424a1dc61982bba2b26c2004587600660008a81526020019081526020016000206002015460405161090f929190611781565b60405180910390a1600660008881526020019081526020016000206002015490509695505050505050565b60006040518060a00160405280848152602001838152602001600081526020016000815260200160008152509050806006600085815260200190815260200160002060008201518160000155602082015181600101556040820151816002015560608201518160030155608082015181600401559050507f89afc73d9070642128ac1a96ea8f614d69e6274b88e568817c5ab86d217bed5a836040516109e09190611766565b60405180910390a1505050565b600060016000838152602001908152602001600020600101549050919050565b610a3d8585858585600360009054906101000a900473ffffffffffffffffffffffffffffffffffffffff16610eaa565b610a46836110d3565b7fb9a5c167b9c0465bcbeee18d1b0d37a9a82813f8262486cee744967849901e2285604051610a759190611766565b60405180910390a15050505050565b600060058281548110610a9a57610a99611b16565b5b90600052602060002001549050919050565b600060016000838152602001908152602001600020600201549050919050565b6005819080600181540180825580915050600190039060005260206000200160009091909190915055807f31d0d431762af1b333d4fef318e03efc7b702fe91dd1f0aa2c72e699bebcb48960405160405180910390a250565b6006600084815260200190815260200160002060040154821115610b7e576040517f08c379a0000000000000000000000000000000000000000000000000000000008152600401610b7590611858565b60405180910390fd5b60066000848152602001908152602001600020600101548114610bd6576040517f08c379a0000000000000000000000000000000000000000000000000000000008152600401610bcd90611878565b60405180910390fd5b3373ffffffffffffffffffffffffffffffffffffffff166108fc839081150290604051600060405180830381858888f19350505050158015610c1c573d6000803e3d6000fd5b5081600660008581526020019081526020016000206004016000828254610c439190611a20565b925050819055507fa4dfdde26c326c8cced668e6a665f4efc3f278bdc9101cdedc4f725abd63a1ee8383604051610c7b929190611781565b60405180910390a1505050565b60066020528060005260406000206000915090508060000154908060010154908060020154908060030154908060040154905085565b610cc6610ddc565b73ffffffffffffffffffffffffffffffffffffffff16610ce4610811565b73ffffffffffffffffffffffffffffffffffffffff1614610d3a576040517f08c379a0000000000000000000000000000000000000000000000000000000008152600401610d3190611898565b60405180910390fd5b600073ffffffffffffffffffffffffffffffffffffffff168173ffffffffffffffffffffffffffffffffffffffff161415610daa576040517f08c379a0000000000000000000000000000000000000000000000000000000008152600401610da190611838565b60405180910390fd5b610db381610de4565b50565b600460009054906101000a900473ffffffffffffffffffffffffffffffffffffffff1681565b600033905090565b6000600260009054906101000a900473ffffffffffffffffffffffffffffffffffffffff16905081600260006101000a81548173ffffffffffffffffffffffffffffffffffffffff021916908373ffffffffffffffffffffffffffffffffffffffff1602179055508173ffffffffffffffffffffffffffffffffffffffff168173ffffffffffffffffffffffffffffffffffffffff167f8be0079c531659141344cd1fd0a4f28419497f9722a3daafe3b4186f6b6457e060405160405180910390a35050565b60008085815260200190815260200160002060009054906101000a900460ff1615610f0a576040517f08c379a0000000000000000000000000000000000000000000000000000000008152600401610f0190611818565b60405180910390fd5b6000610f1587611101565b90508173ffffffffffffffffffffffffffffffffffffffff16635fe8c13b604051806040016040528086600060088110610f5257610f51611b16565b5b6020020135815260200186600160088110610f7057610f6f611b16565b5b60200201358152506040518060400160405280604051806040016040528089600260088110610fa257610fa1611b16565b5b6020020135815260200189600360088110610fc057610fbf611b16565b5b60200201358152508152602001604051806040016040528089600460088110610fec57610feb611b16565b5b602002013581526020018960056008811061100a57611009611b16565b5b602002013581525081525060405180604001604052808860066008811061103457611033611b16565b5b602002013581526020018860076008811061105257611051611b16565b5b602002013581525060405180608001604052808c81526020018b81526020018781526020018a8152506040518563ffffffff1660e01b815260040161109a94939291906116fd565b60006040518083038186803b1580156110b257600080fd5b505afa1580156110c6573d6000803e3d6000fd5b5050505050505050505050565b600160008083815260200190815260200160002060006101000a81548160ff02191690831515021790555050565b600060088260405160200161111691906116c7565b6040516020818303038152906040528051906020012060001c901c9050919050565b60008135905061114781611c68565b92915050565b60008190508260206008028201111561116957611168611b45565b5b92915050565b60008135905061117e81611c7f565b92915050565b60008135905061119381611c96565b92915050565b6000602082840312156111af576111ae611b4a565b5b60006111bd84828501611138565b91505092915050565b6000602082840312156111dc576111db611b4a565b5b60006111ea8482850161116f565b91505092915050565b6000806000806000806101a0878903121561121157611210611b4a565b5b600061121f89828a0161116f565b965050602061123089828a0161116f565b955050604061124189828a01611184565b945050606061125289828a01611184565b935050608061126389828a01611184565b92505060a061127489828a0161114d565b9150509295509295509295565b6000806040838503121561129857611297611b4a565b5b60006112a68582860161116f565b92505060206112b785828601611184565b9150509250929050565b6000806000606084860312156112da576112d9611b4a565b5b60006112e88682870161116f565b93505060206112f986828701611184565b925050604061130a86828701611184565b9150509250925092565b6000806000806000610180868803121561133157611330611b4a565b5b600061133f8882890161116f565b955050602061135088828901611184565b945050604061136188828901611184565b935050606061137288828901611184565b92505060806113838882890161114d565b9150509295509295909350565b6000602082840312156113a6576113a5611b4a565b5b60006113b484828501611184565b91505092915050565b60006113c98383611453565b60408301905092915050565b60006113e1838361169a565b60208301905092915050565b6113f681611a54565b82525050565b6114058161191c565b61140f818461197c565b925061141a826118ee565b8060005b8381101561144b57815161143287826113bd565b965061143d83611948565b92505060018101905061141e565b505050505050565b61145c81611927565b6114668184611987565b9250611471826118f8565b8060005b838110156114a257815161148987826113d5565b965061149483611955565b925050600181019050611475565b505050505050565b6114b381611927565b6114bd8184611992565b92506114c8826118f8565b8060005b838110156114f95781516114e087826113d5565b96506114eb83611955565b9250506001810190506114cc565b505050505050565b61150a81611932565b611514818461199d565b925061151f82611902565b8060005b8381101561155057815161153787826113d5565b965061154283611962565b925050600181019050611523565b505050505050565b60006115638261193d565b61156d81856119a8565b93506115788361190c565b8060005b838110156115a957815161159088826113d5565b975061159b8361196f565b92505060018101905061157c565b5085935050505092915050565b6115bf81611a66565b82525050565b6115d66115d182611a66565b611add565b82525050565b6115e581611aa7565b82525050565b60006115f86036836119b9565b915061160382611b4f565b604082019050919050565b600061161b6026836119b9565b915061162682611b9e565b604082019050919050565b600061163e6012836119b9565b915061164982611bed565b602082019050919050565b6000611661601c836119b9565b915061166c82611c16565b602082019050919050565b60006116846020836119b9565b915061168f82611c3f565b602082019050919050565b6116a381611a90565b82525050565b6116b281611a90565b82525050565b6116c181611a9a565b82525050565b60006116d382846115c5565b60208201915081905092915050565b60006020820190506116f760008301846113ed565b92915050565b60006101808201905061171360008301876114aa565b61172060408301866113fc565b61172d60c08301856114aa565b61173b610100830184611501565b95945050505050565b6000602082019050818103600083015261175e8184611558565b905092915050565b600060208201905061177b60008301846115b6565b92915050565b600060408201905061179660008301856115b6565b6117a360208301846116a9565b9392505050565b600060a0820190506117bf60008301886115b6565b6117cc60208301876116a9565b6117d960408301866116a9565b6117e660608301856116a9565b6117f360808301846116a9565b9695505050505050565b600060208201905061181260008301846115dc565b92915050565b60006020820190508181036000830152611831816115eb565b9050919050565b600060208201905081810360008301526118518161160e565b9050919050565b6000602082019050818103600083015261187181611631565b9050919050565b6000602082019050818103600083015261189181611654565b9050919050565b600060208201905081810360008301526118b181611677565b9050919050565b60006020820190506118cd60008301846116a9565b92915050565b60006020820190506118e860008301846116b8565b92915050565b6000819050919050565b6000819050919050565b6000819050919050565b6000819050602082019050919050565b600060029050919050565b600060029050919050565b600060049050919050565b600081519050919050565b6000602082019050919050565b6000602082019050919050565b6000602082019050919050565b6000602082019050919050565b600081905092915050565b600081905092915050565b600081905092915050565b600081905092915050565b600082825260208201905092915050565b600082825260208201905092915050565b60006119d582611a90565b91506119e083611a90565b9250827fffffffffffffffffffffffffffffffffffffffffffffffffffffffffffffffff03821115611a1557611a14611ae7565b5b828201905092915050565b6000611a2b82611a90565b9150611a3683611a90565b925082821015611a4957611a48611ae7565b5b828203905092915050565b6000611a5f82611a70565b9050919050565b6000819050919050565b600073ffffffffffffffffffffffffffffffffffffffff82169050919050565b6000819050919050565b600060ff82169050919050565b6000611ab282611ab9565b9050919050565b6000611ac482611acb565b9050919050565b6000611ad682611a70565b9050919050565b6000819050919050565b7f4e487b7100000000000000000000000000000000000000000000000000000000600052601160045260246000fd5b7f4e487b7100000000000000000000000000000000000000000000000000000000600052603260045260246000fd5b600080fd5b600080fd5b7f53656d6170686f7265436f72653a20796f752063616e6e6f742075736520746860008201527f652073616d65206e756c6c696669657220747769636500000000000000000000602082015250565b7f4f776e61626c653a206e6577206f776e657220697320746865207a65726f206160008201527f6464726573730000000000000000000000000000000000000000000000000000602082015250565b7f4e6f7420656e6f7567682062616c616e63650000000000000000000000000000600082015250565b7f596f75722068617368636f6d6d69746d656e742069732077726f6e6700000000600082015250565b7f4f776e61626c653a2063616c6c6572206973206e6f7420746865206f776e6572600082015250565b611c7181611a54565b8114611c7c57600080fd5b50565b611c8881611a66565b8114611c9357600080fd5b50565b611c9f81611a90565b8114611caa57600080fd5b5056fea2646970667358221220b0bdd94103ad98a2c79b6a4805bafad329251513f208fc3a4eb9633f49271e7964736f6c63430008070033",
          "opcodes": "PUSH1 0x80 PUSH1 0x40 MSTORE ADDRESS PUSH1 0x4 PUSH1 0x0 PUSH2 0x100 EXP DUP2 SLOAD DUP2 PUSH20 0xFFFFFFFFFFFFFFFFFFFFFFFFFFFFFFFFFFFFFFFF MUL NOT AND SWAP1 DUP4 PUSH20 0xFFFFFFFFFFFFFFFFFFFFFFFFFFFFFFFFFFFFFFFF AND MUL OR SWAP1 SSTORE POP CALLVALUE DUP1 ISZERO PUSH3 0x52 JUMPI PUSH1 0x0 DUP1 REVERT JUMPDEST POP PUSH1 0x40 MLOAD PUSH3 0x1F3D CODESIZE SUB DUP1 PUSH3 0x1F3D DUP4 CODECOPY DUP2 DUP2 ADD PUSH1 0x40 MSTORE DUP2 ADD SWAP1 PUSH3 0x78 SWAP2 SWAP1 PUSH3 0x1C5 JUMP JUMPDEST PUSH3 0x98 PUSH3 0x8C PUSH3 0xE0 PUSH1 0x20 SHL PUSH1 0x20 SHR JUMP JUMPDEST PUSH3 0xE8 PUSH1 0x20 SHL PUSH1 0x20 SHR JUMP JUMPDEST DUP1 PUSH1 0x3 PUSH1 0x0 PUSH2 0x100 EXP DUP2 SLOAD DUP2 PUSH20 0xFFFFFFFFFFFFFFFFFFFFFFFFFFFFFFFFFFFFFFFF MUL NOT AND SWAP1 DUP4 PUSH20 0xFFFFFFFFFFFFFFFFFFFFFFFFFFFFFFFFFFFFFFFF AND MUL OR SWAP1 SSTORE POP POP PUSH3 0x24A JUMP JUMPDEST PUSH1 0x0 CALLER SWAP1 POP SWAP1 JUMP JUMPDEST PUSH1 0x0 PUSH1 0x2 PUSH1 0x0 SWAP1 SLOAD SWAP1 PUSH2 0x100 EXP SWAP1 DIV PUSH20 0xFFFFFFFFFFFFFFFFFFFFFFFFFFFFFFFFFFFFFFFF AND SWAP1 POP DUP2 PUSH1 0x2 PUSH1 0x0 PUSH2 0x100 EXP DUP2 SLOAD DUP2 PUSH20 0xFFFFFFFFFFFFFFFFFFFFFFFFFFFFFFFFFFFFFFFF MUL NOT AND SWAP1 DUP4 PUSH20 0xFFFFFFFFFFFFFFFFFFFFFFFFFFFFFFFFFFFFFFFF AND MUL OR SWAP1 SSTORE POP DUP2 PUSH20 0xFFFFFFFFFFFFFFFFFFFFFFFFFFFFFFFFFFFFFFFF AND DUP2 PUSH20 0xFFFFFFFFFFFFFFFFFFFFFFFFFFFFFFFFFFFFFFFF AND PUSH32 0x8BE0079C531659141344CD1FD0A4F28419497F9722A3DAAFE3B4186F6B6457E0 PUSH1 0x40 MLOAD PUSH1 0x40 MLOAD DUP1 SWAP2 SUB SWAP1 LOG3 POP POP JUMP JUMPDEST PUSH1 0x0 DUP2 MLOAD SWAP1 POP PUSH3 0x1BF DUP2 PUSH3 0x230 JUMP JUMPDEST SWAP3 SWAP2 POP POP JUMP JUMPDEST PUSH1 0x0 PUSH1 0x20 DUP3 DUP5 SUB SLT ISZERO PUSH3 0x1DE JUMPI PUSH3 0x1DD PUSH3 0x22B JUMP JUMPDEST JUMPDEST PUSH1 0x0 PUSH3 0x1EE DUP5 DUP3 DUP6 ADD PUSH3 0x1AE JUMP JUMPDEST SWAP2 POP POP SWAP3 SWAP2 POP POP JUMP JUMPDEST PUSH1 0x0 PUSH3 0x204 DUP3 PUSH3 0x20B JUMP JUMPDEST SWAP1 POP SWAP2 SWAP1 POP JUMP JUMPDEST PUSH1 0x0 PUSH20 0xFFFFFFFFFFFFFFFFFFFFFFFFFFFFFFFFFFFFFFFF DUP3 AND SWAP1 POP SWAP2 SWAP1 POP JUMP JUMPDEST PUSH1 0x0 DUP1 REVERT JUMPDEST PUSH3 0x23B DUP2 PUSH3 0x1F7 JUMP JUMPDEST DUP2 EQ PUSH3 0x247 JUMPI PUSH1 0x0 DUP1 REVERT JUMPDEST POP JUMP JUMPDEST PUSH2 0x1CE3 DUP1 PUSH3 0x25A PUSH1 0x0 CODECOPY PUSH1 0x0 RETURN INVALID PUSH1 0x80 PUSH1 0x40 MSTORE PUSH1 0x4 CALLDATASIZE LT PUSH2 0x12A JUMPI PUSH1 0x0 CALLDATALOAD PUSH1 0xE0 SHR DUP1 PUSH4 0x9173E81F GT PUSH2 0xAB JUMPI DUP1 PUSH4 0xB9C78C2B GT PUSH2 0x6F JUMPI DUP1 PUSH4 0xB9C78C2B EQ PUSH2 0x40B JUMPI DUP1 PUSH4 0xBDE10612 EQ PUSH2 0x448 JUMPI DUP1 PUSH4 0xD0550143 EQ PUSH2 0x471 JUMPI DUP1 PUSH4 0xDFF72DEC EQ PUSH2 0x49A JUMPI DUP1 PUSH4 0xF2FDE38B EQ PUSH2 0x4DB JUMPI DUP1 PUSH4 0xF6B4DFB4 EQ PUSH2 0x504 JUMPI PUSH2 0x12A JUMP JUMPDEST DUP1 PUSH4 0x9173E81F EQ PUSH2 0x302 JUMPI DUP1 PUSH4 0x95C5267D EQ PUSH2 0x33F JUMPI DUP1 PUSH4 0x9B24B3B0 EQ PUSH2 0x368 JUMPI DUP1 PUSH4 0xA4CC32C4 EQ PUSH2 0x3A5 JUMPI DUP1 PUSH4 0xB30B483F EQ PUSH2 0x3CE JUMPI PUSH2 0x12A JUMP JUMPDEST DUP1 PUSH4 0x715018A6 GT PUSH2 0xF2 JUMPI DUP1 PUSH4 0x715018A6 EQ PUSH2 0x209 JUMPI DUP1 PUSH4 0x75E618C9 EQ PUSH2 0x220 JUMPI DUP1 PUSH4 0x85115D3D EQ PUSH2 0x25D JUMPI DUP1 PUSH4 0x8DA5CB5B EQ PUSH2 0x29A JUMPI DUP1 PUSH4 0x8FD0DE57 EQ PUSH2 0x2C5 JUMPI PUSH2 0x12A JUMP JUMPDEST DUP1 PUSH4 0x1C69B464 EQ PUSH2 0x12F JUMPI DUP1 PUSH4 0x229F463D EQ PUSH2 0x15A JUMPI DUP1 PUSH4 0x2B7AC3F3 EQ PUSH2 0x176 JUMPI DUP1 PUSH4 0x3476A5AD EQ PUSH2 0x1A1 JUMPI DUP1 PUSH4 0x40566790 EQ PUSH2 0x1DE JUMPI JUMPDEST PUSH1 0x0 DUP1 REVERT JUMPDEST CALLVALUE DUP1 ISZERO PUSH2 0x13B JUMPI PUSH1 0x0 DUP1 REVERT JUMPDEST POP PUSH2 0x144 PUSH2 0x52F JUMP JUMPDEST PUSH1 0x40 MLOAD PUSH2 0x151 SWAP2 SWAP1 PUSH2 0x18B8 JUMP JUMPDEST PUSH1 0x40 MLOAD DUP1 SWAP2 SUB SWAP1 RETURN JUMPDEST PUSH2 0x174 PUSH1 0x4 DUP1 CALLDATASIZE SUB DUP2 ADD SWAP1 PUSH2 0x16F SWAP2 SWAP1 PUSH2 0x11C6 JUMP JUMPDEST PUSH2 0x5B3 JUMP JUMPDEST STOP JUMPDEST CALLVALUE DUP1 ISZERO PUSH2 0x182 JUMPI PUSH1 0x0 DUP1 REVERT JUMPDEST POP PUSH2 0x18B PUSH2 0x5E3 JUMP JUMPDEST PUSH1 0x40 MLOAD PUSH2 0x198 SWAP2 SWAP1 PUSH2 0x17FD JUMP JUMPDEST PUSH1 0x40 MLOAD DUP1 SWAP2 SUB SWAP1 RETURN JUMPDEST CALLVALUE DUP1 ISZERO PUSH2 0x1AD JUMPI PUSH1 0x0 DUP1 REVERT JUMPDEST POP PUSH2 0x1C8 PUSH1 0x4 DUP1 CALLDATASIZE SUB DUP2 ADD SWAP1 PUSH2 0x1C3 SWAP2 SWAP1 PUSH2 0x11C6 JUMP JUMPDEST PUSH2 0x609 JUMP JUMPDEST PUSH1 0x40 MLOAD PUSH2 0x1D5 SWAP2 SWAP1 PUSH2 0x18B8 JUMP JUMPDEST PUSH1 0x40 MLOAD DUP1 SWAP2 SUB SWAP1 RETURN JUMPDEST CALLVALUE DUP1 ISZERO PUSH2 0x1EA JUMPI PUSH1 0x0 DUP1 REVERT JUMPDEST POP PUSH2 0x1F3 PUSH2 0x629 JUMP JUMPDEST PUSH1 0x40 MLOAD PUSH2 0x200 SWAP2 SWAP1 PUSH2 0x1744 JUMP JUMPDEST PUSH1 0x40 MLOAD DUP1 SWAP2 SUB SWAP1 RETURN JUMPDEST CALLVALUE DUP1 ISZERO PUSH2 0x215 JUMPI PUSH1 0x0 DUP1 REVERT JUMPDEST POP PUSH2 0x21E PUSH2 0x681 JUMP JUMPDEST STOP JUMPDEST CALLVALUE DUP1 ISZERO PUSH2 0x22C JUMPI PUSH1 0x0 DUP1 REVERT JUMPDEST POP PUSH2 0x247 PUSH1 0x4 DUP1 CALLDATASIZE SUB DUP2 ADD SWAP1 PUSH2 0x242 SWAP2 SWAP1 PUSH2 0x1390 JUMP JUMPDEST PUSH2 0x709 JUMP JUMPDEST PUSH1 0x40 MLOAD PUSH2 0x254 SWAP2 SWAP1 PUSH2 0x18D3 JUMP JUMPDEST PUSH1 0x40 MLOAD DUP1 SWAP2 SUB SWAP1 RETURN JUMPDEST CALLVALUE DUP1 ISZERO PUSH2 0x269 JUMPI PUSH1 0x0 DUP1 REVERT JUMPDEST POP PUSH2 0x284 PUSH1 0x4 DUP1 CALLDATASIZE SUB DUP2 ADD SWAP1 PUSH2 0x27F SWAP2 SWAP1 PUSH2 0x11F3 JUMP JUMPDEST PUSH2 0x736 JUMP JUMPDEST PUSH1 0x40 MLOAD PUSH2 0x291 SWAP2 SWAP1 PUSH2 0x18B8 JUMP JUMPDEST PUSH1 0x40 MLOAD DUP1 SWAP2 SUB SWAP1 RETURN JUMPDEST CALLVALUE DUP1 ISZERO PUSH2 0x2A6 JUMPI PUSH1 0x0 DUP1 REVERT JUMPDEST POP PUSH2 0x2AF PUSH2 0x811 JUMP JUMPDEST PUSH1 0x40 MLOAD PUSH2 0x2BC SWAP2 SWAP1 PUSH2 0x16E2 JUMP JUMPDEST PUSH1 0x40 MLOAD DUP1 SWAP2 SUB SWAP1 RETURN JUMPDEST CALLVALUE DUP1 ISZERO PUSH2 0x2D1 JUMPI PUSH1 0x0 DUP1 REVERT JUMPDEST POP PUSH2 0x2EC PUSH1 0x4 DUP1 CALLDATASIZE SUB DUP2 ADD SWAP1 PUSH2 0x2E7 SWAP2 SWAP1 PUSH2 0x1390 JUMP JUMPDEST PUSH2 0x83B JUMP JUMPDEST PUSH1 0x40 MLOAD PUSH2 0x2F9 SWAP2 SWAP1 PUSH2 0x18B8 JUMP JUMPDEST PUSH1 0x40 MLOAD DUP1 SWAP2 SUB SWAP1 RETURN JUMPDEST CALLVALUE DUP1 ISZERO PUSH2 0x30E JUMPI PUSH1 0x0 DUP1 REVERT JUMPDEST POP PUSH2 0x329 PUSH1 0x4 DUP1 CALLDATASIZE SUB DUP2 ADD SWAP1 PUSH2 0x324 SWAP2 SWAP1 PUSH2 0x11F3 JUMP JUMPDEST PUSH2 0x85F JUMP JUMPDEST PUSH1 0x40 MLOAD PUSH2 0x336 SWAP2 SWAP1 PUSH2 0x18B8 JUMP JUMPDEST PUSH1 0x40 MLOAD DUP1 SWAP2 SUB SWAP1 RETURN JUMPDEST CALLVALUE DUP1 ISZERO PUSH2 0x34B JUMPI PUSH1 0x0 DUP1 REVERT JUMPDEST POP PUSH2 0x366 PUSH1 0x4 DUP1 CALLDATASIZE SUB DUP2 ADD SWAP1 PUSH2 0x361 SWAP2 SWAP1 PUSH2 0x1281 JUMP JUMPDEST PUSH2 0x93A JUMP JUMPDEST STOP JUMPDEST CALLVALUE DUP1 ISZERO PUSH2 0x374 JUMPI PUSH1 0x0 DUP1 REVERT JUMPDEST POP PUSH2 0x38F PUSH1 0x4 DUP1 CALLDATASIZE SUB DUP2 ADD SWAP1 PUSH2 0x38A SWAP2 SWAP1 PUSH2 0x1390 JUMP JUMPDEST PUSH2 0x9ED JUMP JUMPDEST PUSH1 0x40 MLOAD PUSH2 0x39C SWAP2 SWAP1 PUSH2 0x18B8 JUMP JUMPDEST PUSH1 0x40 MLOAD DUP1 SWAP2 SUB SWAP1 RETURN JUMPDEST CALLVALUE DUP1 ISZERO PUSH2 0x3B1 JUMPI PUSH1 0x0 DUP1 REVERT JUMPDEST POP PUSH2 0x3CC PUSH1 0x4 DUP1 CALLDATASIZE SUB DUP2 ADD SWAP1 PUSH2 0x3C7 SWAP2 SWAP1 PUSH2 0x1314 JUMP JUMPDEST PUSH2 0xA0D JUMP JUMPDEST STOP JUMPDEST CALLVALUE DUP1 ISZERO PUSH2 0x3DA JUMPI PUSH1 0x0 DUP1 REVERT JUMPDEST POP PUSH2 0x3F5 PUSH1 0x4 DUP1 CALLDATASIZE SUB DUP2 ADD SWAP1 PUSH2 0x3F0 SWAP2 SWAP1 PUSH2 0x1390 JUMP JUMPDEST PUSH2 0xA84 JUMP JUMPDEST PUSH1 0x40 MLOAD PUSH2 0x402 SWAP2 SWAP1 PUSH2 0x18B8 JUMP JUMPDEST PUSH1 0x40 MLOAD DUP1 SWAP2 SUB SWAP1 RETURN JUMPDEST CALLVALUE DUP1 ISZERO PUSH2 0x417 JUMPI PUSH1 0x0 DUP1 REVERT JUMPDEST POP PUSH2 0x432 PUSH1 0x4 DUP1 CALLDATASIZE SUB DUP2 ADD SWAP1 PUSH2 0x42D SWAP2 SWAP1 PUSH2 0x1390 JUMP JUMPDEST PUSH2 0xAAC JUMP JUMPDEST PUSH1 0x40 MLOAD PUSH2 0x43F SWAP2 SWAP1 PUSH2 0x18B8 JUMP JUMPDEST PUSH1 0x40 MLOAD DUP1 SWAP2 SUB SWAP1 RETURN JUMPDEST CALLVALUE DUP1 ISZERO PUSH2 0x454 JUMPI PUSH1 0x0 DUP1 REVERT JUMPDEST POP PUSH2 0x46F PUSH1 0x4 DUP1 CALLDATASIZE SUB DUP2 ADD SWAP1 PUSH2 0x46A SWAP2 SWAP1 PUSH2 0x1390 JUMP JUMPDEST PUSH2 0xACC JUMP JUMPDEST STOP JUMPDEST CALLVALUE DUP1 ISZERO PUSH2 0x47D JUMPI PUSH1 0x0 DUP1 REVERT JUMPDEST POP PUSH2 0x498 PUSH1 0x4 DUP1 CALLDATASIZE SUB DUP2 ADD SWAP1 PUSH2 0x493 SWAP2 SWAP1 PUSH2 0x12C1 JUMP JUMPDEST PUSH2 0xB25 JUMP JUMPDEST STOP JUMPDEST CALLVALUE DUP1 ISZERO PUSH2 0x4A6 JUMPI PUSH1 0x0 DUP1 REVERT JUMPDEST POP PUSH2 0x4C1 PUSH1 0x4 DUP1 CALLDATASIZE SUB DUP2 ADD SWAP1 PUSH2 0x4BC SWAP2 SWAP1 PUSH2 0x11C6 JUMP JUMPDEST PUSH2 0xC88 JUMP JUMPDEST PUSH1 0x40 MLOAD PUSH2 0x4D2 SWAP6 SWAP5 SWAP4 SWAP3 SWAP2 SWAP1 PUSH2 0x17AA JUMP JUMPDEST PUSH1 0x40 MLOAD DUP1 SWAP2 SUB SWAP1 RETURN JUMPDEST CALLVALUE DUP1 ISZERO PUSH2 0x4E7 JUMPI PUSH1 0x0 DUP1 REVERT JUMPDEST POP PUSH2 0x502 PUSH1 0x4 DUP1 CALLDATASIZE SUB DUP2 ADD SWAP1 PUSH2 0x4FD SWAP2 SWAP1 PUSH2 0x1199 JUMP JUMPDEST PUSH2 0xCBE JUMP JUMPDEST STOP JUMPDEST CALLVALUE DUP1 ISZERO PUSH2 0x510 JUMPI PUSH1 0x0 DUP1 REVERT JUMPDEST POP PUSH2 0x519 PUSH2 0xDB6 JUMP JUMPDEST PUSH1 0x40 MLOAD PUSH2 0x526 SWAP2 SWAP1 PUSH2 0x16E2 JUMP JUMPDEST PUSH1 0x40 MLOAD DUP1 SWAP2 SUB SWAP1 RETURN JUMPDEST PUSH1 0x0 PUSH2 0x539 PUSH2 0xDDC JUMP JUMPDEST PUSH20 0xFFFFFFFFFFFFFFFFFFFFFFFFFFFFFFFFFFFFFFFF AND PUSH2 0x557 PUSH2 0x811 JUMP JUMPDEST PUSH20 0xFFFFFFFFFFFFFFFFFFFFFFFFFFFFFFFFFFFFFFFF AND EQ PUSH2 0x5AD JUMPI PUSH1 0x40 MLOAD PUSH32 0x8C379A000000000000000000000000000000000000000000000000000000000 DUP2 MSTORE PUSH1 0x4 ADD PUSH2 0x5A4 SWAP1 PUSH2 0x1898 JUMP JUMPDEST PUSH1 0x40 MLOAD DUP1 SWAP2 SUB SWAP1 REVERT JUMPDEST SELFBALANCE SWAP1 POP SWAP1 JUMP JUMPDEST CALLVALUE PUSH1 0x6 PUSH1 0x0 DUP4 DUP2 MSTORE PUSH1 0x20 ADD SWAP1 DUP2 MSTORE PUSH1 0x20 ADD PUSH1 0x0 KECCAK256 PUSH1 0x4 ADD PUSH1 0x0 DUP3 DUP3 SLOAD PUSH2 0x5D9 SWAP2 SWAP1 PUSH2 0x19CA JUMP JUMPDEST SWAP3 POP POP DUP2 SWAP1 SSTORE POP POP JUMP JUMPDEST PUSH1 0x3 PUSH1 0x0 SWAP1 SLOAD SWAP1 PUSH2 0x100 EXP SWAP1 DIV PUSH20 0xFFFFFFFFFFFFFFFFFFFFFFFFFFFFFFFFFFFFFFFF AND DUP2 JUMP JUMPDEST PUSH1 0x0 PUSH1 0x6 PUSH1 0x0 DUP4 DUP2 MSTORE PUSH1 0x20 ADD SWAP1 DUP2 MSTORE PUSH1 0x20 ADD PUSH1 0x0 KECCAK256 PUSH1 0x4 ADD SLOAD SWAP1 POP SWAP2 SWAP1 POP JUMP JUMPDEST PUSH1 0x60 PUSH1 0x5 DUP1 SLOAD DUP1 PUSH1 0x20 MUL PUSH1 0x20 ADD PUSH1 0x40 MLOAD SWAP1 DUP2 ADD PUSH1 0x40 MSTORE DUP1 SWAP3 SWAP2 SWAP1 DUP2 DUP2 MSTORE PUSH1 0x20 ADD DUP3 DUP1 SLOAD DUP1 ISZERO PUSH2 0x677 JUMPI PUSH1 0x20 MUL DUP3 ADD SWAP2 SWAP1 PUSH1 0x0 MSTORE PUSH1 0x20 PUSH1 0x0 KECCAK256 SWAP1 JUMPDEST DUP2 SLOAD DUP2 MSTORE PUSH1 0x20 ADD SWAP1 PUSH1 0x1 ADD SWAP1 DUP1 DUP4 GT PUSH2 0x663 JUMPI JUMPDEST POP POP POP POP POP SWAP1 POP SWAP1 JUMP JUMPDEST PUSH2 0x689 PUSH2 0xDDC JUMP JUMPDEST PUSH20 0xFFFFFFFFFFFFFFFFFFFFFFFFFFFFFFFFFFFFFFFF AND PUSH2 0x6A7 PUSH2 0x811 JUMP JUMPDEST PUSH20 0xFFFFFFFFFFFFFFFFFFFFFFFFFFFFFFFFFFFFFFFF AND EQ PUSH2 0x6FD JUMPI PUSH1 0x40 MLOAD PUSH32 0x8C379A000000000000000000000000000000000000000000000000000000000 DUP2 MSTORE PUSH1 0x4 ADD PUSH2 0x6F4 SWAP1 PUSH2 0x1898 JUMP JUMPDEST PUSH1 0x40 MLOAD DUP1 SWAP2 SUB SWAP1 REVERT JUMPDEST PUSH2 0x707 PUSH1 0x0 PUSH2 0xDE4 JUMP JUMPDEST JUMP JUMPDEST PUSH1 0x0 PUSH1 0x1 PUSH1 0x0 DUP4 DUP2 MSTORE PUSH1 0x20 ADD SWAP1 DUP2 MSTORE PUSH1 0x20 ADD PUSH1 0x0 KECCAK256 PUSH1 0x0 ADD PUSH1 0x0 SWAP1 SLOAD SWAP1 PUSH2 0x100 EXP SWAP1 DIV PUSH1 0xFF AND SWAP1 POP SWAP2 SWAP1 POP JUMP JUMPDEST PUSH1 0x0 PUSH2 0x768 DUP7 DUP7 DUP7 DUP7 DUP7 PUSH1 0x3 PUSH1 0x0 SWAP1 SLOAD SWAP1 PUSH2 0x100 EXP SWAP1 DIV PUSH20 0xFFFFFFFFFFFFFFFFFFFFFFFFFFFFFFFFFFFFFFFF AND PUSH2 0xEAA JUMP JUMPDEST PUSH1 0x1 PUSH1 0x6 PUSH1 0x0 DUP10 DUP2 MSTORE PUSH1 0x20 ADD SWAP1 DUP2 MSTORE PUSH1 0x20 ADD PUSH1 0x0 KECCAK256 PUSH1 0x3 ADD PUSH1 0x0 DUP3 DUP3 SLOAD PUSH2 0x78F SWAP2 SWAP1 PUSH2 0x19CA JUMP JUMPDEST SWAP3 POP POP DUP2 SWAP1 SSTORE POP PUSH2 0x79F DUP5 PUSH2 0x10D3 JUMP JUMPDEST PUSH32 0xF571FCDE2131C4B8ACCF487FFB9C72AE528B2CFFF5AEA2DE932D57FE9347AA0 DUP8 PUSH1 0x6 PUSH1 0x0 DUP11 DUP2 MSTORE PUSH1 0x20 ADD SWAP1 DUP2 MSTORE PUSH1 0x20 ADD PUSH1 0x0 KECCAK256 PUSH1 0x3 ADD SLOAD PUSH1 0x40 MLOAD PUSH2 0x7E6 SWAP3 SWAP2 SWAP1 PUSH2 0x1781 JUMP JUMPDEST PUSH1 0x40 MLOAD DUP1 SWAP2 SUB SWAP1 LOG1 PUSH1 0x6 PUSH1 0x0 DUP9 DUP2 MSTORE PUSH1 0x20 ADD SWAP1 DUP2 MSTORE PUSH1 0x20 ADD PUSH1 0x0 KECCAK256 PUSH1 0x3 ADD SLOAD SWAP1 POP SWAP7 SWAP6 POP POP POP POP POP POP JUMP JUMPDEST PUSH1 0x0 PUSH1 0x2 PUSH1 0x0 SWAP1 SLOAD SWAP1 PUSH2 0x100 EXP SWAP1 DIV PUSH20 0xFFFFFFFFFFFFFFFFFFFFFFFFFFFFFFFFFFFFFFFF AND SWAP1 POP SWAP1 JUMP JUMPDEST PUSH1 0x5 DUP2 DUP2 SLOAD DUP2 LT PUSH2 0x84B JUMPI PUSH1 0x0 DUP1 REVERT JUMPDEST SWAP1 PUSH1 0x0 MSTORE PUSH1 0x20 PUSH1 0x0 KECCAK256 ADD PUSH1 0x0 SWAP2 POP SWAP1 POP SLOAD DUP2 JUMP JUMPDEST PUSH1 0x0 PUSH2 0x891 DUP7 DUP7 DUP7 DUP7 DUP7 PUSH1 0x3 PUSH1 0x0 SWAP1 SLOAD SWAP1 PUSH2 0x100 EXP SWAP1 DIV PUSH20 0xFFFFFFFFFFFFFFFFFFFFFFFFFFFFFFFFFFFFFFFF AND PUSH2 0xEAA JUMP JUMPDEST PUSH1 0x1 PUSH1 0x6 PUSH1 0x0 DUP10 DUP2 MSTORE PUSH1 0x20 ADD SWAP1 DUP2 MSTORE PUSH1 0x20 ADD PUSH1 0x0 KECCAK256 PUSH1 0x2 ADD PUSH1 0x0 DUP3 DUP3 SLOAD PUSH2 0x8B8 SWAP2 SWAP1 PUSH2 0x19CA JUMP JUMPDEST SWAP3 POP POP DUP2 SWAP1 SSTORE POP PUSH2 0x8C8 DUP5 PUSH2 0x10D3 JUMP JUMPDEST PUSH32 0xCAF9BFEC47E3C7F8879F6EB731FAF23A2DC50C5424A1DC61982BBA2B26C20045 DUP8 PUSH1 0x6 PUSH1 0x0 DUP11 DUP2 MSTORE PUSH1 0x20 ADD SWAP1 DUP2 MSTORE PUSH1 0x20 ADD PUSH1 0x0 KECCAK256 PUSH1 0x2 ADD SLOAD PUSH1 0x40 MLOAD PUSH2 0x90F SWAP3 SWAP2 SWAP1 PUSH2 0x1781 JUMP JUMPDEST PUSH1 0x40 MLOAD DUP1 SWAP2 SUB SWAP1 LOG1 PUSH1 0x6 PUSH1 0x0 DUP9 DUP2 MSTORE PUSH1 0x20 ADD SWAP1 DUP2 MSTORE PUSH1 0x20 ADD PUSH1 0x0 KECCAK256 PUSH1 0x2 ADD SLOAD SWAP1 POP SWAP7 SWAP6 POP POP POP POP POP POP JUMP JUMPDEST PUSH1 0x0 PUSH1 0x40 MLOAD DUP1 PUSH1 0xA0 ADD PUSH1 0x40 MSTORE DUP1 DUP5 DUP2 MSTORE PUSH1 0x20 ADD DUP4 DUP2 MSTORE PUSH1 0x20 ADD PUSH1 0x0 DUP2 MSTORE PUSH1 0x20 ADD PUSH1 0x0 DUP2 MSTORE PUSH1 0x20 ADD PUSH1 0x0 DUP2 MSTORE POP SWAP1 POP DUP1 PUSH1 0x6 PUSH1 0x0 DUP6 DUP2 MSTORE PUSH1 0x20 ADD SWAP1 DUP2 MSTORE PUSH1 0x20 ADD PUSH1 0x0 KECCAK256 PUSH1 0x0 DUP3 ADD MLOAD DUP2 PUSH1 0x0 ADD SSTORE PUSH1 0x20 DUP3 ADD MLOAD DUP2 PUSH1 0x1 ADD SSTORE PUSH1 0x40 DUP3 ADD MLOAD DUP2 PUSH1 0x2 ADD SSTORE PUSH1 0x60 DUP3 ADD MLOAD DUP2 PUSH1 0x3 ADD SSTORE PUSH1 0x80 DUP3 ADD MLOAD DUP2 PUSH1 0x4 ADD SSTORE SWAP1 POP POP PUSH32 0x89AFC73D9070642128AC1A96EA8F614D69E6274B88E568817C5AB86D217BED5A DUP4 PUSH1 0x40 MLOAD PUSH2 0x9E0 SWAP2 SWAP1 PUSH2 0x1766 JUMP JUMPDEST PUSH1 0x40 MLOAD DUP1 SWAP2 SUB SWAP1 LOG1 POP POP POP JUMP JUMPDEST PUSH1 0x0 PUSH1 0x1 PUSH1 0x0 DUP4 DUP2 MSTORE PUSH1 0x20 ADD SWAP1 DUP2 MSTORE PUSH1 0x20 ADD PUSH1 0x0 KECCAK256 PUSH1 0x1 ADD SLOAD SWAP1 POP SWAP2 SWAP1 POP JUMP JUMPDEST PUSH2 0xA3D DUP6 DUP6 DUP6 DUP6 DUP6 PUSH1 0x3 PUSH1 0x0 SWAP1 SLOAD SWAP1 PUSH2 0x100 EXP SWAP1 DIV PUSH20 0xFFFFFFFFFFFFFFFFFFFFFFFFFFFFFFFFFFFFFFFF AND PUSH2 0xEAA JUMP JUMPDEST PUSH2 0xA46 DUP4 PUSH2 0x10D3 JUMP JUMPDEST PUSH32 0xB9A5C167B9C0465BCBEEE18D1B0D37A9A82813F8262486CEE744967849901E22 DUP6 PUSH1 0x40 MLOAD PUSH2 0xA75 SWAP2 SWAP1 PUSH2 0x1766 JUMP JUMPDEST PUSH1 0x40 MLOAD DUP1 SWAP2 SUB SWAP1 LOG1 POP POP POP POP POP JUMP JUMPDEST PUSH1 0x0 PUSH1 0x5 DUP3 DUP2 SLOAD DUP2 LT PUSH2 0xA9A JUMPI PUSH2 0xA99 PUSH2 0x1B16 JUMP JUMPDEST JUMPDEST SWAP1 PUSH1 0x0 MSTORE PUSH1 0x20 PUSH1 0x0 KECCAK256 ADD SLOAD SWAP1 POP SWAP2 SWAP1 POP JUMP JUMPDEST PUSH1 0x0 PUSH1 0x1 PUSH1 0x0 DUP4 DUP2 MSTORE PUSH1 0x20 ADD SWAP1 DUP2 MSTORE PUSH1 0x20 ADD PUSH1 0x0 KECCAK256 PUSH1 0x2 ADD SLOAD SWAP1 POP SWAP2 SWAP1 POP JUMP JUMPDEST PUSH1 0x5 DUP2 SWAP1 DUP1 PUSH1 0x1 DUP2 SLOAD ADD DUP1 DUP3 SSTORE DUP1 SWAP2 POP POP PUSH1 0x1 SWAP1 SUB SWAP1 PUSH1 0x0 MSTORE PUSH1 0x20 PUSH1 0x0 KECCAK256 ADD PUSH1 0x0 SWAP1 SWAP2 SWAP1 SWAP2 SWAP1 SWAP2 POP SSTORE DUP1 PUSH32 0x31D0D431762AF1B333D4FEF318E03EFC7B702FE91DD1F0AA2C72E699BEBCB489 PUSH1 0x40 MLOAD PUSH1 0x40 MLOAD DUP1 SWAP2 SUB SWAP1 LOG2 POP JUMP JUMPDEST PUSH1 0x6 PUSH1 0x0 DUP5 DUP2 MSTORE PUSH1 0x20 ADD SWAP1 DUP2 MSTORE PUSH1 0x20 ADD PUSH1 0x0 KECCAK256 PUSH1 0x4 ADD SLOAD DUP3 GT ISZERO PUSH2 0xB7E JUMPI PUSH1 0x40 MLOAD PUSH32 0x8C379A000000000000000000000000000000000000000000000000000000000 DUP2 MSTORE PUSH1 0x4 ADD PUSH2 0xB75 SWAP1 PUSH2 0x1858 JUMP JUMPDEST PUSH1 0x40 MLOAD DUP1 SWAP2 SUB SWAP1 REVERT JUMPDEST PUSH1 0x6 PUSH1 0x0 DUP5 DUP2 MSTORE PUSH1 0x20 ADD SWAP1 DUP2 MSTORE PUSH1 0x20 ADD PUSH1 0x0 KECCAK256 PUSH1 0x1 ADD SLOAD DUP2 EQ PUSH2 0xBD6 JUMPI PUSH1 0x40 MLOAD PUSH32 0x8C379A000000000000000000000000000000000000000000000000000000000 DUP2 MSTORE PUSH1 0x4 ADD PUSH2 0xBCD SWAP1 PUSH2 0x1878 JUMP JUMPDEST PUSH1 0x40 MLOAD DUP1 SWAP2 SUB SWAP1 REVERT JUMPDEST CALLER PUSH20 0xFFFFFFFFFFFFFFFFFFFFFFFFFFFFFFFFFFFFFFFF AND PUSH2 0x8FC DUP4 SWAP1 DUP2 ISZERO MUL SWAP1 PUSH1 0x40 MLOAD PUSH1 0x0 PUSH1 0x40 MLOAD DUP1 DUP4 SUB DUP2 DUP6 DUP9 DUP9 CALL SWAP4 POP POP POP POP ISZERO DUP1 ISZERO PUSH2 0xC1C JUMPI RETURNDATASIZE PUSH1 0x0 DUP1 RETURNDATACOPY RETURNDATASIZE PUSH1 0x0 REVERT JUMPDEST POP DUP2 PUSH1 0x6 PUSH1 0x0 DUP6 DUP2 MSTORE PUSH1 0x20 ADD SWAP1 DUP2 MSTORE PUSH1 0x20 ADD PUSH1 0x0 KECCAK256 PUSH1 0x4 ADD PUSH1 0x0 DUP3 DUP3 SLOAD PUSH2 0xC43 SWAP2 SWAP1 PUSH2 0x1A20 JUMP JUMPDEST SWAP3 POP POP DUP2 SWAP1 SSTORE POP PUSH32 0xA4DFDDE26C326C8CCED668E6A665F4EFC3F278BDC9101CDEDC4F725ABD63A1EE DUP4 DUP4 PUSH1 0x40 MLOAD PUSH2 0xC7B SWAP3 SWAP2 SWAP1 PUSH2 0x1781 JUMP JUMPDEST PUSH1 0x40 MLOAD DUP1 SWAP2 SUB SWAP1 LOG1 POP POP POP JUMP JUMPDEST PUSH1 0x6 PUSH1 0x20 MSTORE DUP1 PUSH1 0x0 MSTORE PUSH1 0x40 PUSH1 0x0 KECCAK256 PUSH1 0x0 SWAP2 POP SWAP1 POP DUP1 PUSH1 0x0 ADD SLOAD SWAP1 DUP1 PUSH1 0x1 ADD SLOAD SWAP1 DUP1 PUSH1 0x2 ADD SLOAD SWAP1 DUP1 PUSH1 0x3 ADD SLOAD SWAP1 DUP1 PUSH1 0x4 ADD SLOAD SWAP1 POP DUP6 JUMP JUMPDEST PUSH2 0xCC6 PUSH2 0xDDC JUMP JUMPDEST PUSH20 0xFFFFFFFFFFFFFFFFFFFFFFFFFFFFFFFFFFFFFFFF AND PUSH2 0xCE4 PUSH2 0x811 JUMP JUMPDEST PUSH20 0xFFFFFFFFFFFFFFFFFFFFFFFFFFFFFFFFFFFFFFFF AND EQ PUSH2 0xD3A JUMPI PUSH1 0x40 MLOAD PUSH32 0x8C379A000000000000000000000000000000000000000000000000000000000 DUP2 MSTORE PUSH1 0x4 ADD PUSH2 0xD31 SWAP1 PUSH2 0x1898 JUMP JUMPDEST PUSH1 0x40 MLOAD DUP1 SWAP2 SUB SWAP1 REVERT JUMPDEST PUSH1 0x0 PUSH20 0xFFFFFFFFFFFFFFFFFFFFFFFFFFFFFFFFFFFFFFFF AND DUP2 PUSH20 0xFFFFFFFFFFFFFFFFFFFFFFFFFFFFFFFFFFFFFFFF AND EQ ISZERO PUSH2 0xDAA JUMPI PUSH1 0x40 MLOAD PUSH32 0x8C379A000000000000000000000000000000000000000000000000000000000 DUP2 MSTORE PUSH1 0x4 ADD PUSH2 0xDA1 SWAP1 PUSH2 0x1838 JUMP JUMPDEST PUSH1 0x40 MLOAD DUP1 SWAP2 SUB SWAP1 REVERT JUMPDEST PUSH2 0xDB3 DUP2 PUSH2 0xDE4 JUMP JUMPDEST POP JUMP JUMPDEST PUSH1 0x4 PUSH1 0x0 SWAP1 SLOAD SWAP1 PUSH2 0x100 EXP SWAP1 DIV PUSH20 0xFFFFFFFFFFFFFFFFFFFFFFFFFFFFFFFFFFFFFFFF AND DUP2 JUMP JUMPDEST PUSH1 0x0 CALLER SWAP1 POP SWAP1 JUMP JUMPDEST PUSH1 0x0 PUSH1 0x2 PUSH1 0x0 SWAP1 SLOAD SWAP1 PUSH2 0x100 EXP SWAP1 DIV PUSH20 0xFFFFFFFFFFFFFFFFFFFFFFFFFFFFFFFFFFFFFFFF AND SWAP1 POP DUP2 PUSH1 0x2 PUSH1 0x0 PUSH2 0x100 EXP DUP2 SLOAD DUP2 PUSH20 0xFFFFFFFFFFFFFFFFFFFFFFFFFFFFFFFFFFFFFFFF MUL NOT AND SWAP1 DUP4 PUSH20 0xFFFFFFFFFFFFFFFFFFFFFFFFFFFFFFFFFFFFFFFF AND MUL OR SWAP1 SSTORE POP DUP2 PUSH20 0xFFFFFFFFFFFFFFFFFFFFFFFFFFFFFFFFFFFFFFFF AND DUP2 PUSH20 0xFFFFFFFFFFFFFFFFFFFFFFFFFFFFFFFFFFFFFFFF AND PUSH32 0x8BE0079C531659141344CD1FD0A4F28419497F9722A3DAAFE3B4186F6B6457E0 PUSH1 0x40 MLOAD PUSH1 0x40 MLOAD DUP1 SWAP2 SUB SWAP1 LOG3 POP POP JUMP JUMPDEST PUSH1 0x0 DUP1 DUP6 DUP2 MSTORE PUSH1 0x20 ADD SWAP1 DUP2 MSTORE PUSH1 0x20 ADD PUSH1 0x0 KECCAK256 PUSH1 0x0 SWAP1 SLOAD SWAP1 PUSH2 0x100 EXP SWAP1 DIV PUSH1 0xFF AND ISZERO PUSH2 0xF0A JUMPI PUSH1 0x40 MLOAD PUSH32 0x8C379A000000000000000000000000000000000000000000000000000000000 DUP2 MSTORE PUSH1 0x4 ADD PUSH2 0xF01 SWAP1 PUSH2 0x1818 JUMP JUMPDEST PUSH1 0x40 MLOAD DUP1 SWAP2 SUB SWAP1 REVERT JUMPDEST PUSH1 0x0 PUSH2 0xF15 DUP8 PUSH2 0x1101 JUMP JUMPDEST SWAP1 POP DUP2 PUSH20 0xFFFFFFFFFFFFFFFFFFFFFFFFFFFFFFFFFFFFFFFF AND PUSH4 0x5FE8C13B PUSH1 0x40 MLOAD DUP1 PUSH1 0x40 ADD PUSH1 0x40 MSTORE DUP1 DUP7 PUSH1 0x0 PUSH1 0x8 DUP2 LT PUSH2 0xF52 JUMPI PUSH2 0xF51 PUSH2 0x1B16 JUMP JUMPDEST JUMPDEST PUSH1 0x20 MUL ADD CALLDATALOAD DUP2 MSTORE PUSH1 0x20 ADD DUP7 PUSH1 0x1 PUSH1 0x8 DUP2 LT PUSH2 0xF70 JUMPI PUSH2 0xF6F PUSH2 0x1B16 JUMP JUMPDEST JUMPDEST PUSH1 0x20 MUL ADD CALLDATALOAD DUP2 MSTORE POP PUSH1 0x40 MLOAD DUP1 PUSH1 0x40 ADD PUSH1 0x40 MSTORE DUP1 PUSH1 0x40 MLOAD DUP1 PUSH1 0x40 ADD PUSH1 0x40 MSTORE DUP1 DUP10 PUSH1 0x2 PUSH1 0x8 DUP2 LT PUSH2 0xFA2 JUMPI PUSH2 0xFA1 PUSH2 0x1B16 JUMP JUMPDEST JUMPDEST PUSH1 0x20 MUL ADD CALLDATALOAD DUP2 MSTORE PUSH1 0x20 ADD DUP10 PUSH1 0x3 PUSH1 0x8 DUP2 LT PUSH2 0xFC0 JUMPI PUSH2 0xFBF PUSH2 0x1B16 JUMP JUMPDEST JUMPDEST PUSH1 0x20 MUL ADD CALLDATALOAD DUP2 MSTORE POP DUP2 MSTORE PUSH1 0x20 ADD PUSH1 0x40 MLOAD DUP1 PUSH1 0x40 ADD PUSH1 0x40 MSTORE DUP1 DUP10 PUSH1 0x4 PUSH1 0x8 DUP2 LT PUSH2 0xFEC JUMPI PUSH2 0xFEB PUSH2 0x1B16 JUMP JUMPDEST JUMPDEST PUSH1 0x20 MUL ADD CALLDATALOAD DUP2 MSTORE PUSH1 0x20 ADD DUP10 PUSH1 0x5 PUSH1 0x8 DUP2 LT PUSH2 0x100A JUMPI PUSH2 0x1009 PUSH2 0x1B16 JUMP JUMPDEST JUMPDEST PUSH1 0x20 MUL ADD CALLDATALOAD DUP2 MSTORE POP DUP2 MSTORE POP PUSH1 0x40 MLOAD DUP1 PUSH1 0x40 ADD PUSH1 0x40 MSTORE DUP1 DUP9 PUSH1 0x6 PUSH1 0x8 DUP2 LT PUSH2 0x1034 JUMPI PUSH2 0x1033 PUSH2 0x1B16 JUMP JUMPDEST JUMPDEST PUSH1 0x20 MUL ADD CALLDATALOAD DUP2 MSTORE PUSH1 0x20 ADD DUP9 PUSH1 0x7 PUSH1 0x8 DUP2 LT PUSH2 0x1052 JUMPI PUSH2 0x1051 PUSH2 0x1B16 JUMP JUMPDEST JUMPDEST PUSH1 0x20 MUL ADD CALLDATALOAD DUP2 MSTORE POP PUSH1 0x40 MLOAD DUP1 PUSH1 0x80 ADD PUSH1 0x40 MSTORE DUP1 DUP13 DUP2 MSTORE PUSH1 0x20 ADD DUP12 DUP2 MSTORE PUSH1 0x20 ADD DUP8 DUP2 MSTORE PUSH1 0x20 ADD DUP11 DUP2 MSTORE POP PUSH1 0x40 MLOAD DUP6 PUSH4 0xFFFFFFFF AND PUSH1 0xE0 SHL DUP2 MSTORE PUSH1 0x4 ADD PUSH2 0x109A SWAP5 SWAP4 SWAP3 SWAP2 SWAP1 PUSH2 0x16FD JUMP JUMPDEST PUSH1 0x0 PUSH1 0x40 MLOAD DUP1 DUP4 SUB DUP2 DUP7 DUP1 EXTCODESIZE ISZERO DUP1 ISZERO PUSH2 0x10B2 JUMPI PUSH1 0x0 DUP1 REVERT JUMPDEST POP GAS STATICCALL ISZERO DUP1 ISZERO PUSH2 0x10C6 JUMPI RETURNDATASIZE PUSH1 0x0 DUP1 RETURNDATACOPY RETURNDATASIZE PUSH1 0x0 REVERT JUMPDEST POP POP POP POP POP POP POP POP POP POP POP JUMP JUMPDEST PUSH1 0x1 PUSH1 0x0 DUP1 DUP4 DUP2 MSTORE PUSH1 0x20 ADD SWAP1 DUP2 MSTORE PUSH1 0x20 ADD PUSH1 0x0 KECCAK256 PUSH1 0x0 PUSH2 0x100 EXP DUP2 SLOAD DUP2 PUSH1 0xFF MUL NOT AND SWAP1 DUP4 ISZERO ISZERO MUL OR SWAP1 SSTORE POP POP JUMP JUMPDEST PUSH1 0x0 PUSH1 0x8 DUP3 PUSH1 0x40 MLOAD PUSH1 0x20 ADD PUSH2 0x1116 SWAP2 SWAP1 PUSH2 0x16C7 JUMP JUMPDEST PUSH1 0x40 MLOAD PUSH1 0x20 DUP2 DUP4 SUB SUB DUP2 MSTORE SWAP1 PUSH1 0x40 MSTORE DUP1 MLOAD SWAP1 PUSH1 0x20 ADD KECCAK256 PUSH1 0x0 SHR SWAP1 SHR SWAP1 POP SWAP2 SWAP1 POP JUMP JUMPDEST PUSH1 0x0 DUP2 CALLDATALOAD SWAP1 POP PUSH2 0x1147 DUP2 PUSH2 0x1C68 JUMP JUMPDEST SWAP3 SWAP2 POP POP JUMP JUMPDEST PUSH1 0x0 DUP2 SWAP1 POP DUP3 PUSH1 0x20 PUSH1 0x8 MUL DUP3 ADD GT ISZERO PUSH2 0x1169 JUMPI PUSH2 0x1168 PUSH2 0x1B45 JUMP JUMPDEST JUMPDEST SWAP3 SWAP2 POP POP JUMP JUMPDEST PUSH1 0x0 DUP2 CALLDATALOAD SWAP1 POP PUSH2 0x117E DUP2 PUSH2 0x1C7F JUMP JUMPDEST SWAP3 SWAP2 POP POP JUMP JUMPDEST PUSH1 0x0 DUP2 CALLDATALOAD SWAP1 POP PUSH2 0x1193 DUP2 PUSH2 0x1C96 JUMP JUMPDEST SWAP3 SWAP2 POP POP JUMP JUMPDEST PUSH1 0x0 PUSH1 0x20 DUP3 DUP5 SUB SLT ISZERO PUSH2 0x11AF JUMPI PUSH2 0x11AE PUSH2 0x1B4A JUMP JUMPDEST JUMPDEST PUSH1 0x0 PUSH2 0x11BD DUP5 DUP3 DUP6 ADD PUSH2 0x1138 JUMP JUMPDEST SWAP2 POP POP SWAP3 SWAP2 POP POP JUMP JUMPDEST PUSH1 0x0 PUSH1 0x20 DUP3 DUP5 SUB SLT ISZERO PUSH2 0x11DC JUMPI PUSH2 0x11DB PUSH2 0x1B4A JUMP JUMPDEST JUMPDEST PUSH1 0x0 PUSH2 0x11EA DUP5 DUP3 DUP6 ADD PUSH2 0x116F JUMP JUMPDEST SWAP2 POP POP SWAP3 SWAP2 POP POP JUMP JUMPDEST PUSH1 0x0 DUP1 PUSH1 0x0 DUP1 PUSH1 0x0 DUP1 PUSH2 0x1A0 DUP8 DUP10 SUB SLT ISZERO PUSH2 0x1211 JUMPI PUSH2 0x1210 PUSH2 0x1B4A JUMP JUMPDEST JUMPDEST PUSH1 0x0 PUSH2 0x121F DUP10 DUP3 DUP11 ADD PUSH2 0x116F JUMP JUMPDEST SWAP7 POP POP PUSH1 0x20 PUSH2 0x1230 DUP10 DUP3 DUP11 ADD PUSH2 0x116F JUMP JUMPDEST SWAP6 POP POP PUSH1 0x40 PUSH2 0x1241 DUP10 DUP3 DUP11 ADD PUSH2 0x1184 JUMP JUMPDEST SWAP5 POP POP PUSH1 0x60 PUSH2 0x1252 DUP10 DUP3 DUP11 ADD PUSH2 0x1184 JUMP JUMPDEST SWAP4 POP POP PUSH1 0x80 PUSH2 0x1263 DUP10 DUP3 DUP11 ADD PUSH2 0x1184 JUMP JUMPDEST SWAP3 POP POP PUSH1 0xA0 PUSH2 0x1274 DUP10 DUP3 DUP11 ADD PUSH2 0x114D JUMP JUMPDEST SWAP2 POP POP SWAP3 SWAP6 POP SWAP3 SWAP6 POP SWAP3 SWAP6 JUMP JUMPDEST PUSH1 0x0 DUP1 PUSH1 0x40 DUP4 DUP6 SUB SLT ISZERO PUSH2 0x1298 JUMPI PUSH2 0x1297 PUSH2 0x1B4A JUMP JUMPDEST JUMPDEST PUSH1 0x0 PUSH2 0x12A6 DUP6 DUP3 DUP7 ADD PUSH2 0x116F JUMP JUMPDEST SWAP3 POP POP PUSH1 0x20 PUSH2 0x12B7 DUP6 DUP3 DUP7 ADD PUSH2 0x1184 JUMP JUMPDEST SWAP2 POP POP SWAP3 POP SWAP3 SWAP1 POP JUMP JUMPDEST PUSH1 0x0 DUP1 PUSH1 0x0 PUSH1 0x60 DUP5 DUP7 SUB SLT ISZERO PUSH2 0x12DA JUMPI PUSH2 0x12D9 PUSH2 0x1B4A JUMP JUMPDEST JUMPDEST PUSH1 0x0 PUSH2 0x12E8 DUP7 DUP3 DUP8 ADD PUSH2 0x116F JUMP JUMPDEST SWAP4 POP POP PUSH1 0x20 PUSH2 0x12F9 DUP7 DUP3 DUP8 ADD PUSH2 0x1184 JUMP JUMPDEST SWAP3 POP POP PUSH1 0x40 PUSH2 0x130A DUP7 DUP3 DUP8 ADD PUSH2 0x1184 JUMP JUMPDEST SWAP2 POP POP SWAP3 POP SWAP3 POP SWAP3 JUMP JUMPDEST PUSH1 0x0 DUP1 PUSH1 0x0 DUP1 PUSH1 0x0 PUSH2 0x180 DUP7 DUP9 SUB SLT ISZERO PUSH2 0x1331 JUMPI PUSH2 0x1330 PUSH2 0x1B4A JUMP JUMPDEST JUMPDEST PUSH1 0x0 PUSH2 0x133F DUP9 DUP3 DUP10 ADD PUSH2 0x116F JUMP JUMPDEST SWAP6 POP POP PUSH1 0x20 PUSH2 0x1350 DUP9 DUP3 DUP10 ADD PUSH2 0x1184 JUMP JUMPDEST SWAP5 POP POP PUSH1 0x40 PUSH2 0x1361 DUP9 DUP3 DUP10 ADD PUSH2 0x1184 JUMP JUMPDEST SWAP4 POP POP PUSH1 0x60 PUSH2 0x1372 DUP9 DUP3 DUP10 ADD PUSH2 0x1184 JUMP JUMPDEST SWAP3 POP POP PUSH1 0x80 PUSH2 0x1383 DUP9 DUP3 DUP10 ADD PUSH2 0x114D JUMP JUMPDEST SWAP2 POP POP SWAP3 SWAP6 POP SWAP3 SWAP6 SWAP1 SWAP4 POP JUMP JUMPDEST PUSH1 0x0 PUSH1 0x20 DUP3 DUP5 SUB SLT ISZERO PUSH2 0x13A6 JUMPI PUSH2 0x13A5 PUSH2 0x1B4A JUMP JUMPDEST JUMPDEST PUSH1 0x0 PUSH2 0x13B4 DUP5 DUP3 DUP6 ADD PUSH2 0x1184 JUMP JUMPDEST SWAP2 POP POP SWAP3 SWAP2 POP POP JUMP JUMPDEST PUSH1 0x0 PUSH2 0x13C9 DUP4 DUP4 PUSH2 0x1453 JUMP JUMPDEST PUSH1 0x40 DUP4 ADD SWAP1 POP SWAP3 SWAP2 POP POP JUMP JUMPDEST PUSH1 0x0 PUSH2 0x13E1 DUP4 DUP4 PUSH2 0x169A JUMP JUMPDEST PUSH1 0x20 DUP4 ADD SWAP1 POP SWAP3 SWAP2 POP POP JUMP JUMPDEST PUSH2 0x13F6 DUP2 PUSH2 0x1A54 JUMP JUMPDEST DUP3 MSTORE POP POP JUMP JUMPDEST PUSH2 0x1405 DUP2 PUSH2 0x191C JUMP JUMPDEST PUSH2 0x140F DUP2 DUP5 PUSH2 0x197C JUMP JUMPDEST SWAP3 POP PUSH2 0x141A DUP3 PUSH2 0x18EE JUMP JUMPDEST DUP1 PUSH1 0x0 JUMPDEST DUP4 DUP2 LT ISZERO PUSH2 0x144B JUMPI DUP2 MLOAD PUSH2 0x1432 DUP8 DUP3 PUSH2 0x13BD JUMP JUMPDEST SWAP7 POP PUSH2 0x143D DUP4 PUSH2 0x1948 JUMP JUMPDEST SWAP3 POP POP PUSH1 0x1 DUP2 ADD SWAP1 POP PUSH2 0x141E JUMP JUMPDEST POP POP POP POP POP POP JUMP JUMPDEST PUSH2 0x145C DUP2 PUSH2 0x1927 JUMP JUMPDEST PUSH2 0x1466 DUP2 DUP5 PUSH2 0x1987 JUMP JUMPDEST SWAP3 POP PUSH2 0x1471 DUP3 PUSH2 0x18F8 JUMP JUMPDEST DUP1 PUSH1 0x0 JUMPDEST DUP4 DUP2 LT ISZERO PUSH2 0x14A2 JUMPI DUP2 MLOAD PUSH2 0x1489 DUP8 DUP3 PUSH2 0x13D5 JUMP JUMPDEST SWAP7 POP PUSH2 0x1494 DUP4 PUSH2 0x1955 JUMP JUMPDEST SWAP3 POP POP PUSH1 0x1 DUP2 ADD SWAP1 POP PUSH2 0x1475 JUMP JUMPDEST POP POP POP POP POP POP JUMP JUMPDEST PUSH2 0x14B3 DUP2 PUSH2 0x1927 JUMP JUMPDEST PUSH2 0x14BD DUP2 DUP5 PUSH2 0x1992 JUMP JUMPDEST SWAP3 POP PUSH2 0x14C8 DUP3 PUSH2 0x18F8 JUMP JUMPDEST DUP1 PUSH1 0x0 JUMPDEST DUP4 DUP2 LT ISZERO PUSH2 0x14F9 JUMPI DUP2 MLOAD PUSH2 0x14E0 DUP8 DUP3 PUSH2 0x13D5 JUMP JUMPDEST SWAP7 POP PUSH2 0x14EB DUP4 PUSH2 0x1955 JUMP JUMPDEST SWAP3 POP POP PUSH1 0x1 DUP2 ADD SWAP1 POP PUSH2 0x14CC JUMP JUMPDEST POP POP POP POP POP POP JUMP JUMPDEST PUSH2 0x150A DUP2 PUSH2 0x1932 JUMP JUMPDEST PUSH2 0x1514 DUP2 DUP5 PUSH2 0x199D JUMP JUMPDEST SWAP3 POP PUSH2 0x151F DUP3 PUSH2 0x1902 JUMP JUMPDEST DUP1 PUSH1 0x0 JUMPDEST DUP4 DUP2 LT ISZERO PUSH2 0x1550 JUMPI DUP2 MLOAD PUSH2 0x1537 DUP8 DUP3 PUSH2 0x13D5 JUMP JUMPDEST SWAP7 POP PUSH2 0x1542 DUP4 PUSH2 0x1962 JUMP JUMPDEST SWAP3 POP POP PUSH1 0x1 DUP2 ADD SWAP1 POP PUSH2 0x1523 JUMP JUMPDEST POP POP POP POP POP POP JUMP JUMPDEST PUSH1 0x0 PUSH2 0x1563 DUP3 PUSH2 0x193D JUMP JUMPDEST PUSH2 0x156D DUP2 DUP6 PUSH2 0x19A8 JUMP JUMPDEST SWAP4 POP PUSH2 0x1578 DUP4 PUSH2 0x190C JUMP JUMPDEST DUP1 PUSH1 0x0 JUMPDEST DUP4 DUP2 LT ISZERO PUSH2 0x15A9 JUMPI DUP2 MLOAD PUSH2 0x1590 DUP9 DUP3 PUSH2 0x13D5 JUMP JUMPDEST SWAP8 POP PUSH2 0x159B DUP4 PUSH2 0x196F JUMP JUMPDEST SWAP3 POP POP PUSH1 0x1 DUP2 ADD SWAP1 POP PUSH2 0x157C JUMP JUMPDEST POP DUP6 SWAP4 POP POP POP POP SWAP3 SWAP2 POP POP JUMP JUMPDEST PUSH2 0x15BF DUP2 PUSH2 0x1A66 JUMP JUMPDEST DUP3 MSTORE POP POP JUMP JUMPDEST PUSH2 0x15D6 PUSH2 0x15D1 DUP3 PUSH2 0x1A66 JUMP JUMPDEST PUSH2 0x1ADD JUMP JUMPDEST DUP3 MSTORE POP POP JUMP JUMPDEST PUSH2 0x15E5 DUP2 PUSH2 0x1AA7 JUMP JUMPDEST DUP3 MSTORE POP POP JUMP JUMPDEST PUSH1 0x0 PUSH2 0x15F8 PUSH1 0x36 DUP4 PUSH2 0x19B9 JUMP JUMPDEST SWAP2 POP PUSH2 0x1603 DUP3 PUSH2 0x1B4F JUMP JUMPDEST PUSH1 0x40 DUP3 ADD SWAP1 POP SWAP2 SWAP1 POP JUMP JUMPDEST PUSH1 0x0 PUSH2 0x161B PUSH1 0x26 DUP4 PUSH2 0x19B9 JUMP JUMPDEST SWAP2 POP PUSH2 0x1626 DUP3 PUSH2 0x1B9E JUMP JUMPDEST PUSH1 0x40 DUP3 ADD SWAP1 POP SWAP2 SWAP1 POP JUMP JUMPDEST PUSH1 0x0 PUSH2 0x163E PUSH1 0x12 DUP4 PUSH2 0x19B9 JUMP JUMPDEST SWAP2 POP PUSH2 0x1649 DUP3 PUSH2 0x1BED JUMP JUMPDEST PUSH1 0x20 DUP3 ADD SWAP1 POP SWAP2 SWAP1 POP JUMP JUMPDEST PUSH1 0x0 PUSH2 0x1661 PUSH1 0x1C DUP4 PUSH2 0x19B9 JUMP JUMPDEST SWAP2 POP PUSH2 0x166C DUP3 PUSH2 0x1C16 JUMP JUMPDEST PUSH1 0x20 DUP3 ADD SWAP1 POP SWAP2 SWAP1 POP JUMP JUMPDEST PUSH1 0x0 PUSH2 0x1684 PUSH1 0x20 DUP4 PUSH2 0x19B9 JUMP JUMPDEST SWAP2 POP PUSH2 0x168F DUP3 PUSH2 0x1C3F JUMP JUMPDEST PUSH1 0x20 DUP3 ADD SWAP1 POP SWAP2 SWAP1 POP JUMP JUMPDEST PUSH2 0x16A3 DUP2 PUSH2 0x1A90 JUMP JUMPDEST DUP3 MSTORE POP POP JUMP JUMPDEST PUSH2 0x16B2 DUP2 PUSH2 0x1A90 JUMP JUMPDEST DUP3 MSTORE POP POP JUMP JUMPDEST PUSH2 0x16C1 DUP2 PUSH2 0x1A9A JUMP JUMPDEST DUP3 MSTORE POP POP JUMP JUMPDEST PUSH1 0x0 PUSH2 0x16D3 DUP3 DUP5 PUSH2 0x15C5 JUMP JUMPDEST PUSH1 0x20 DUP3 ADD SWAP2 POP DUP2 SWAP1 POP SWAP3 SWAP2 POP POP JUMP JUMPDEST PUSH1 0x0 PUSH1 0x20 DUP3 ADD SWAP1 POP PUSH2 0x16F7 PUSH1 0x0 DUP4 ADD DUP5 PUSH2 0x13ED JUMP JUMPDEST SWAP3 SWAP2 POP POP JUMP JUMPDEST PUSH1 0x0 PUSH2 0x180 DUP3 ADD SWAP1 POP PUSH2 0x1713 PUSH1 0x0 DUP4 ADD DUP8 PUSH2 0x14AA JUMP JUMPDEST PUSH2 0x1720 PUSH1 0x40 DUP4 ADD DUP7 PUSH2 0x13FC JUMP JUMPDEST PUSH2 0x172D PUSH1 0xC0 DUP4 ADD DUP6 PUSH2 0x14AA JUMP JUMPDEST PUSH2 0x173B PUSH2 0x100 DUP4 ADD DUP5 PUSH2 0x1501 JUMP JUMPDEST SWAP6 SWAP5 POP POP POP POP POP JUMP JUMPDEST PUSH1 0x0 PUSH1 0x20 DUP3 ADD SWAP1 POP DUP2 DUP2 SUB PUSH1 0x0 DUP4 ADD MSTORE PUSH2 0x175E DUP2 DUP5 PUSH2 0x1558 JUMP JUMPDEST SWAP1 POP SWAP3 SWAP2 POP POP JUMP JUMPDEST PUSH1 0x0 PUSH1 0x20 DUP3 ADD SWAP1 POP PUSH2 0x177B PUSH1 0x0 DUP4 ADD DUP5 PUSH2 0x15B6 JUMP JUMPDEST SWAP3 SWAP2 POP POP JUMP JUMPDEST PUSH1 0x0 PUSH1 0x40 DUP3 ADD SWAP1 POP PUSH2 0x1796 PUSH1 0x0 DUP4 ADD DUP6 PUSH2 0x15B6 JUMP JUMPDEST PUSH2 0x17A3 PUSH1 0x20 DUP4 ADD DUP5 PUSH2 0x16A9 JUMP JUMPDEST SWAP4 SWAP3 POP POP POP JUMP JUMPDEST PUSH1 0x0 PUSH1 0xA0 DUP3 ADD SWAP1 POP PUSH2 0x17BF PUSH1 0x0 DUP4 ADD DUP9 PUSH2 0x15B6 JUMP JUMPDEST PUSH2 0x17CC PUSH1 0x20 DUP4 ADD DUP8 PUSH2 0x16A9 JUMP JUMPDEST PUSH2 0x17D9 PUSH1 0x40 DUP4 ADD DUP7 PUSH2 0x16A9 JUMP JUMPDEST PUSH2 0x17E6 PUSH1 0x60 DUP4 ADD DUP6 PUSH2 0x16A9 JUMP JUMPDEST PUSH2 0x17F3 PUSH1 0x80 DUP4 ADD DUP5 PUSH2 0x16A9 JUMP JUMPDEST SWAP7 SWAP6 POP POP POP POP POP POP JUMP JUMPDEST PUSH1 0x0 PUSH1 0x20 DUP3 ADD SWAP1 POP PUSH2 0x1812 PUSH1 0x0 DUP4 ADD DUP5 PUSH2 0x15DC JUMP JUMPDEST SWAP3 SWAP2 POP POP JUMP JUMPDEST PUSH1 0x0 PUSH1 0x20 DUP3 ADD SWAP1 POP DUP2 DUP2 SUB PUSH1 0x0 DUP4 ADD MSTORE PUSH2 0x1831 DUP2 PUSH2 0x15EB JUMP JUMPDEST SWAP1 POP SWAP2 SWAP1 POP JUMP JUMPDEST PUSH1 0x0 PUSH1 0x20 DUP3 ADD SWAP1 POP DUP2 DUP2 SUB PUSH1 0x0 DUP4 ADD MSTORE PUSH2 0x1851 DUP2 PUSH2 0x160E JUMP JUMPDEST SWAP1 POP SWAP2 SWAP1 POP JUMP JUMPDEST PUSH1 0x0 PUSH1 0x20 DUP3 ADD SWAP1 POP DUP2 DUP2 SUB PUSH1 0x0 DUP4 ADD MSTORE PUSH2 0x1871 DUP2 PUSH2 0x1631 JUMP JUMPDEST SWAP1 POP SWAP2 SWAP1 POP JUMP JUMPDEST PUSH1 0x0 PUSH1 0x20 DUP3 ADD SWAP1 POP DUP2 DUP2 SUB PUSH1 0x0 DUP4 ADD MSTORE PUSH2 0x1891 DUP2 PUSH2 0x1654 JUMP JUMPDEST SWAP1 POP SWAP2 SWAP1 POP JUMP JUMPDEST PUSH1 0x0 PUSH1 0x20 DUP3 ADD SWAP1 POP DUP2 DUP2 SUB PUSH1 0x0 DUP4 ADD MSTORE PUSH2 0x18B1 DUP2 PUSH2 0x1677 JUMP JUMPDEST SWAP1 POP SWAP2 SWAP1 POP JUMP JUMPDEST PUSH1 0x0 PUSH1 0x20 DUP3 ADD SWAP1 POP PUSH2 0x18CD PUSH1 0x0 DUP4 ADD DUP5 PUSH2 0x16A9 JUMP JUMPDEST SWAP3 SWAP2 POP POP JUMP JUMPDEST PUSH1 0x0 PUSH1 0x20 DUP3 ADD SWAP1 POP PUSH2 0x18E8 PUSH1 0x0 DUP4 ADD DUP5 PUSH2 0x16B8 JUMP JUMPDEST SWAP3 SWAP2 POP POP JUMP JUMPDEST PUSH1 0x0 DUP2 SWAP1 POP SWAP2 SWAP1 POP JUMP JUMPDEST PUSH1 0x0 DUP2 SWAP1 POP SWAP2 SWAP1 POP JUMP JUMPDEST PUSH1 0x0 DUP2 SWAP1 POP SWAP2 SWAP1 POP JUMP JUMPDEST PUSH1 0x0 DUP2 SWAP1 POP PUSH1 0x20 DUP3 ADD SWAP1 POP SWAP2 SWAP1 POP JUMP JUMPDEST PUSH1 0x0 PUSH1 0x2 SWAP1 POP SWAP2 SWAP1 POP JUMP JUMPDEST PUSH1 0x0 PUSH1 0x2 SWAP1 POP SWAP2 SWAP1 POP JUMP JUMPDEST PUSH1 0x0 PUSH1 0x4 SWAP1 POP SWAP2 SWAP1 POP JUMP JUMPDEST PUSH1 0x0 DUP2 MLOAD SWAP1 POP SWAP2 SWAP1 POP JUMP JUMPDEST PUSH1 0x0 PUSH1 0x20 DUP3 ADD SWAP1 POP SWAP2 SWAP1 POP JUMP JUMPDEST PUSH1 0x0 PUSH1 0x20 DUP3 ADD SWAP1 POP SWAP2 SWAP1 POP JUMP JUMPDEST PUSH1 0x0 PUSH1 0x20 DUP3 ADD SWAP1 POP SWAP2 SWAP1 POP JUMP JUMPDEST PUSH1 0x0 PUSH1 0x20 DUP3 ADD SWAP1 POP SWAP2 SWAP1 POP JUMP JUMPDEST PUSH1 0x0 DUP2 SWAP1 POP SWAP3 SWAP2 POP POP JUMP JUMPDEST PUSH1 0x0 DUP2 SWAP1 POP SWAP3 SWAP2 POP POP JUMP JUMPDEST PUSH1 0x0 DUP2 SWAP1 POP SWAP3 SWAP2 POP POP JUMP JUMPDEST PUSH1 0x0 DUP2 SWAP1 POP SWAP3 SWAP2 POP POP JUMP JUMPDEST PUSH1 0x0 DUP3 DUP3 MSTORE PUSH1 0x20 DUP3 ADD SWAP1 POP SWAP3 SWAP2 POP POP JUMP JUMPDEST PUSH1 0x0 DUP3 DUP3 MSTORE PUSH1 0x20 DUP3 ADD SWAP1 POP SWAP3 SWAP2 POP POP JUMP JUMPDEST PUSH1 0x0 PUSH2 0x19D5 DUP3 PUSH2 0x1A90 JUMP JUMPDEST SWAP2 POP PUSH2 0x19E0 DUP4 PUSH2 0x1A90 JUMP JUMPDEST SWAP3 POP DUP3 PUSH32 0xFFFFFFFFFFFFFFFFFFFFFFFFFFFFFFFFFFFFFFFFFFFFFFFFFFFFFFFFFFFFFFFF SUB DUP3 GT ISZERO PUSH2 0x1A15 JUMPI PUSH2 0x1A14 PUSH2 0x1AE7 JUMP JUMPDEST JUMPDEST DUP3 DUP3 ADD SWAP1 POP SWAP3 SWAP2 POP POP JUMP JUMPDEST PUSH1 0x0 PUSH2 0x1A2B DUP3 PUSH2 0x1A90 JUMP JUMPDEST SWAP2 POP PUSH2 0x1A36 DUP4 PUSH2 0x1A90 JUMP JUMPDEST SWAP3 POP DUP3 DUP3 LT ISZERO PUSH2 0x1A49 JUMPI PUSH2 0x1A48 PUSH2 0x1AE7 JUMP JUMPDEST JUMPDEST DUP3 DUP3 SUB SWAP1 POP SWAP3 SWAP2 POP POP JUMP JUMPDEST PUSH1 0x0 PUSH2 0x1A5F DUP3 PUSH2 0x1A70 JUMP JUMPDEST SWAP1 POP SWAP2 SWAP1 POP JUMP JUMPDEST PUSH1 0x0 DUP2 SWAP1 POP SWAP2 SWAP1 POP JUMP JUMPDEST PUSH1 0x0 PUSH20 0xFFFFFFFFFFFFFFFFFFFFFFFFFFFFFFFFFFFFFFFF DUP3 AND SWAP1 POP SWAP2 SWAP1 POP JUMP JUMPDEST PUSH1 0x0 DUP2 SWAP1 POP SWAP2 SWAP1 POP JUMP JUMPDEST PUSH1 0x0 PUSH1 0xFF DUP3 AND SWAP1 POP SWAP2 SWAP1 POP JUMP JUMPDEST PUSH1 0x0 PUSH2 0x1AB2 DUP3 PUSH2 0x1AB9 JUMP JUMPDEST SWAP1 POP SWAP2 SWAP1 POP JUMP JUMPDEST PUSH1 0x0 PUSH2 0x1AC4 DUP3 PUSH2 0x1ACB JUMP JUMPDEST SWAP1 POP SWAP2 SWAP1 POP JUMP JUMPDEST PUSH1 0x0 PUSH2 0x1AD6 DUP3 PUSH2 0x1A70 JUMP JUMPDEST SWAP1 POP SWAP2 SWAP1 POP JUMP JUMPDEST PUSH1 0x0 DUP2 SWAP1 POP SWAP2 SWAP1 POP JUMP JUMPDEST PUSH32 0x4E487B7100000000000000000000000000000000000000000000000000000000 PUSH1 0x0 MSTORE PUSH1 0x11 PUSH1 0x4 MSTORE PUSH1 0x24 PUSH1 0x0 REVERT JUMPDEST PUSH32 0x4E487B7100000000000000000000000000000000000000000000000000000000 PUSH1 0x0 MSTORE PUSH1 0x32 PUSH1 0x4 MSTORE PUSH1 0x24 PUSH1 0x0 REVERT JUMPDEST PUSH1 0x0 DUP1 REVERT JUMPDEST PUSH1 0x0 DUP1 REVERT JUMPDEST PUSH32 0x53656D6170686F7265436F72653A20796F752063616E6E6F7420757365207468 PUSH1 0x0 DUP3 ADD MSTORE PUSH32 0x652073616D65206E756C6C696669657220747769636500000000000000000000 PUSH1 0x20 DUP3 ADD MSTORE POP JUMP JUMPDEST PUSH32 0x4F776E61626C653A206E6577206F776E657220697320746865207A65726F2061 PUSH1 0x0 DUP3 ADD MSTORE PUSH32 0x6464726573730000000000000000000000000000000000000000000000000000 PUSH1 0x20 DUP3 ADD MSTORE POP JUMP JUMPDEST PUSH32 0x4E6F7420656E6F7567682062616C616E63650000000000000000000000000000 PUSH1 0x0 DUP3 ADD MSTORE POP JUMP JUMPDEST PUSH32 0x596F75722068617368636F6D6D69746D656E742069732077726F6E6700000000 PUSH1 0x0 DUP3 ADD MSTORE POP JUMP JUMPDEST PUSH32 0x4F776E61626C653A2063616C6C6572206973206E6F7420746865206F776E6572 PUSH1 0x0 DUP3 ADD MSTORE POP JUMP JUMPDEST PUSH2 0x1C71 DUP2 PUSH2 0x1A54 JUMP JUMPDEST DUP2 EQ PUSH2 0x1C7C JUMPI PUSH1 0x0 DUP1 REVERT JUMPDEST POP JUMP JUMPDEST PUSH2 0x1C88 DUP2 PUSH2 0x1A66 JUMP JUMPDEST DUP2 EQ PUSH2 0x1C93 JUMPI PUSH1 0x0 DUP1 REVERT JUMPDEST POP JUMP JUMPDEST PUSH2 0x1C9F DUP2 PUSH2 0x1A90 JUMP JUMPDEST DUP2 EQ PUSH2 0x1CAA JUMPI PUSH1 0x0 DUP1 REVERT JUMPDEST POP JUMP INVALID LOG2 PUSH5 0x6970667358 0x22 SLT KECCAK256 0xB0 0xBD 0xD9 COINBASE SUB 0xAD SWAP9 LOG2 0xC7 SWAP12 PUSH11 0x4805BAFAD329251513F208 0xFC GASPRICE 0x4E 0xB9 PUSH4 0x3F49271E PUSH26 0x64736F6C63430008070033000000000000000000000000000000 "
        },
        "methodIdentifiers": {
          "contractAddress()": "f6b4dfb4",
          "dislikePost(bytes32,bytes32,uint256,uint256,uint256,uint256[8])": "85115d3d",
          "fundPost(bytes32)": "229f463d",
          "getAllFunds()": "1c69b464",
          "getDepth(uint256)": "75e618c9",
          "getIdentityCommitment(uint256)": "b30b483f",
          "getIdentityCommitments()": "40566790",
          "getNumberOfLeaves(uint256)": "b9c78c2b",
          "getPostFunds(bytes32)": "3476a5ad",
          "getRoot(uint256)": "9b24b3b0",
          "identityCommitments(uint256)": "8fd0de57",
          "insertIdentityAsClient(uint256)": "bde10612",
          "likePost(bytes32,bytes32,uint256,uint256,uint256,uint256[8])": "9173e81f",
          "owner()": "8da5cb5b",
          "postNews(bytes32,uint256)": "95c5267d",
          "posts(bytes32)": "dff72dec",
          "register(bytes32,uint256,uint256,uint256,uint256[8])": "a4cc32c4",
          "renounceOwnership()": "715018a6",
          "transferOwnership(address)": "f2fde38b",
          "verifier()": "2b7ac3f3",
          "withdrawFunds(bytes32,uint256,uint256)": "d0550143"
        }
      }
    }
  }
}