{
  "_format": "hh-sol-artifact-1",
  "contractName": "zkNews",
  "sourceName": "contracts/zkNews.sol",
  "abi": [
    {
      "inputs": [
        {
          "internalType": "address",
          "name": "_verifier",
          "type": "address"
        }
      ],
      "stateMutability": "nonpayable",
      "type": "constructor"
    },
    {
      "anonymous": false,
      "inputs": [
        {
          "indexed": false,
          "internalType": "bytes32",
          "name": "postId",
          "type": "bytes32"
        }
      ],
      "name": "Funded",
      "type": "event"
    },
    {
      "anonymous": false,
      "inputs": [
        {
          "indexed": true,
          "internalType": "uint256",
          "name": "groupId",
          "type": "uint256"
        },
        {
          "indexed": false,
          "internalType": "uint8",
          "name": "depth",
          "type": "uint8"
        },
        {
          "indexed": false,
          "internalType": "uint256",
          "name": "zeroValue",
          "type": "uint256"
        }
      ],
      "name": "GroupCreated",
      "type": "event"
    },
    {
      "anonymous": false,
      "inputs": [
        {
          "indexed": true,
          "internalType": "uint256",
          "name": "identityCommitment",
          "type": "uint256"
        }
      ],
      "name": "IdentityCommitment",
      "type": "event"
    },
    {
      "anonymous": false,
      "inputs": [
        {
          "indexed": true,
          "internalType": "uint256",
          "name": "groupId",
          "type": "uint256"
        },
        {
          "indexed": false,
          "internalType": "uint256",
          "name": "identityCommitment",
          "type": "uint256"
        },
        {
          "indexed": false,
          "internalType": "uint256",
          "name": "root",
          "type": "uint256"
        }
      ],
      "name": "MemberAdded",
      "type": "event"
    },
    {
      "anonymous": false,
      "inputs": [
        {
          "indexed": true,
          "internalType": "uint256",
          "name": "groupId",
          "type": "uint256"
        },
        {
          "indexed": false,
          "internalType": "uint256",
          "name": "identityCommitment",
          "type": "uint256"
        },
        {
          "indexed": false,
          "internalType": "uint256",
          "name": "root",
          "type": "uint256"
        }
      ],
      "name": "MemberRemoved",
      "type": "event"
    },
    {
      "anonymous": false,
      "inputs": [
        {
          "indexed": false,
          "internalType": "bytes32",
          "name": "postId",
          "type": "bytes32"
        }
      ],
      "name": "NewPost",
      "type": "event"
    },
    {
      "anonymous": false,
      "inputs": [
        {
          "indexed": false,
          "internalType": "uint256",
          "name": "nullifierHash",
          "type": "uint256"
        }
      ],
      "name": "NullifierHashAdded",
      "type": "event"
    },
    {
      "anonymous": false,
      "inputs": [
        {
          "indexed": true,
          "internalType": "address",
          "name": "previousOwner",
          "type": "address"
        },
        {
          "indexed": true,
          "internalType": "address",
          "name": "newOwner",
          "type": "address"
        }
      ],
      "name": "OwnershipTransferred",
      "type": "event"
    },
    {
      "anonymous": false,
      "inputs": [
        {
          "indexed": false,
          "internalType": "bytes32",
          "name": "postId",
          "type": "bytes32"
        },
        {
          "indexed": false,
          "internalType": "uint256",
          "name": "dislikes",
          "type": "uint256"
        }
      ],
      "name": "PostDisliked",
      "type": "event"
    },
    {
      "anonymous": false,
      "inputs": [
        {
          "indexed": false,
          "internalType": "bytes32",
          "name": "postId",
          "type": "bytes32"
        },
        {
          "indexed": false,
          "internalType": "uint256",
          "name": "likes",
          "type": "uint256"
        }
      ],
      "name": "PostLiked",
      "type": "event"
    },
    {
      "anonymous": false,
      "inputs": [
        {
          "indexed": false,
          "internalType": "bytes32",
          "name": "postId",
          "type": "bytes32"
        },
        {
          "indexed": false,
          "internalType": "uint256",
          "name": "balance",
          "type": "uint256"
        }
      ],
      "name": "Withdrawal",
      "type": "event"
    },
    {
      "inputs": [],
      "name": "contractAddress",
      "outputs": [
        {
          "internalType": "address",
          "name": "",
          "type": "address"
        }
      ],
      "stateMutability": "view",
      "type": "function"
    },
    {
      "inputs": [
        {
          "internalType": "bytes32",
          "name": "postId",
          "type": "bytes32"
        },
        {
          "internalType": "bytes32",
          "name": "signal",
          "type": "bytes32"
        },
        {
          "internalType": "uint256",
          "name": "root",
          "type": "uint256"
        },
        {
          "internalType": "uint256",
          "name": "nullifierHash",
          "type": "uint256"
        },
        {
          "internalType": "uint256",
          "name": "externalNullifier",
          "type": "uint256"
        },
        {
          "internalType": "uint256[8]",
          "name": "proof",
          "type": "uint256[8]"
        }
      ],
      "name": "dislikePost",
      "outputs": [
        {
          "internalType": "uint256",
          "name": "",
          "type": "uint256"
        }
      ],
      "stateMutability": "nonpayable",
      "type": "function"
    },
    {
      "inputs": [
        {
          "internalType": "bytes32",
          "name": "postId",
          "type": "bytes32"
        }
      ],
      "name": "fundPost",
      "outputs": [],
      "stateMutability": "payable",
      "type": "function"
    },
    {
      "inputs": [],
      "name": "getAllFunds",
      "outputs": [
        {
          "internalType": "uint256",
          "name": "",
          "type": "uint256"
        }
      ],
      "stateMutability": "view",
      "type": "function"
    },
    {
      "inputs": [
        {
          "internalType": "uint256",
          "name": "groupId",
          "type": "uint256"
        }
      ],
      "name": "getDepth",
      "outputs": [
        {
          "internalType": "uint8",
          "name": "",
          "type": "uint8"
        }
      ],
      "stateMutability": "view",
      "type": "function"
    },
    {
      "inputs": [
        {
          "internalType": "uint256",
          "name": "_index",
          "type": "uint256"
        }
      ],
      "name": "getIdentityCommitment",
      "outputs": [
        {
          "internalType": "uint256",
          "name": "",
          "type": "uint256"
        }
      ],
      "stateMutability": "view",
      "type": "function"
    },
    {
      "inputs": [],
      "name": "getIdentityCommitments",
      "outputs": [
        {
          "internalType": "uint256[]",
          "name": "",
          "type": "uint256[]"
        }
      ],
      "stateMutability": "view",
      "type": "function"
    },
    {
      "inputs": [
        {
          "internalType": "uint256",
          "name": "groupId",
          "type": "uint256"
        }
      ],
      "name": "getNumberOfLeaves",
      "outputs": [
        {
          "internalType": "uint256",
          "name": "",
          "type": "uint256"
        }
      ],
      "stateMutability": "view",
      "type": "function"
    },
    {
      "inputs": [
        {
          "internalType": "bytes32",
          "name": "postId",
          "type": "bytes32"
        }
      ],
      "name": "getPostFunds",
      "outputs": [
        {
          "internalType": "uint256",
          "name": "",
          "type": "uint256"
        }
      ],
      "stateMutability": "view",
      "type": "function"
    },
    {
      "inputs": [
        {
          "internalType": "uint256",
          "name": "groupId",
          "type": "uint256"
        }
      ],
      "name": "getRoot",
      "outputs": [
        {
          "internalType": "uint256",
          "name": "",
          "type": "uint256"
        }
      ],
      "stateMutability": "view",
      "type": "function"
    },
    {
      "inputs": [
        {
          "internalType": "uint256",
          "name": "",
          "type": "uint256"
        }
      ],
      "name": "identityCommitments",
      "outputs": [
        {
          "internalType": "uint256",
          "name": "",
          "type": "uint256"
        }
      ],
      "stateMutability": "view",
      "type": "function"
    },
    {
      "inputs": [
        {
          "internalType": "uint256",
          "name": "_leaf",
          "type": "uint256"
        }
      ],
      "name": "insertIdentityAsClient",
      "outputs": [],
      "stateMutability": "nonpayable",
      "type": "function"
    },
    {
      "inputs": [
        {
          "internalType": "bytes32",
          "name": "postId",
          "type": "bytes32"
        },
        {
          "internalType": "bytes32",
          "name": "signal",
          "type": "bytes32"
        },
        {
          "internalType": "uint256",
          "name": "root",
          "type": "uint256"
        },
        {
          "internalType": "uint256",
          "name": "nullifierHash",
          "type": "uint256"
        },
        {
          "internalType": "uint256",
          "name": "externalNullifier",
          "type": "uint256"
        },
        {
          "internalType": "uint256[8]",
          "name": "proof",
          "type": "uint256[8]"
        }
      ],
      "name": "likePost",
      "outputs": [
        {
          "internalType": "uint256",
          "name": "",
          "type": "uint256"
        }
      ],
      "stateMutability": "nonpayable",
      "type": "function"
    },
    {
      "inputs": [],
      "name": "owner",
      "outputs": [
        {
          "internalType": "address",
          "name": "",
          "type": "address"
        }
      ],
      "stateMutability": "view",
      "type": "function"
    },
    {
      "inputs": [
        {
          "internalType": "bytes32",
          "name": "postId",
          "type": "bytes32"
        },
        {
          "internalType": "uint256",
          "name": "hashCommitment",
          "type": "uint256"
        }
      ],
      "name": "postNews",
      "outputs": [],
      "stateMutability": "nonpayable",
      "type": "function"
    },
    {
      "inputs": [
        {
          "internalType": "bytes32",
          "name": "",
          "type": "bytes32"
        }
      ],
      "name": "posts",
      "outputs": [
        {
          "internalType": "bytes32",
          "name": "postId",
          "type": "bytes32"
        },
        {
          "internalType": "uint256",
          "name": "hashCommitment",
          "type": "uint256"
        },
        {
          "internalType": "uint256",
          "name": "likes",
          "type": "uint256"
        },
        {
          "internalType": "uint256",
          "name": "dislikes",
          "type": "uint256"
        },
        {
          "internalType": "uint256",
          "name": "balance",
          "type": "uint256"
        }
      ],
      "stateMutability": "view",
      "type": "function"
    },
    {
      "inputs": [],
      "name": "renounceOwnership",
      "outputs": [],
      "stateMutability": "nonpayable",
      "type": "function"
    },
    {
      "inputs": [
        {
          "internalType": "address",
          "name": "newOwner",
          "type": "address"
        }
      ],
      "name": "transferOwnership",
      "outputs": [],
      "stateMutability": "nonpayable",
      "type": "function"
    },
    {
      "inputs": [],
      "name": "verifier",
      "outputs": [
        {
          "internalType": "contract IVerifier",
          "name": "",
          "type": "address"
        }
      ],
      "stateMutability": "view",
      "type": "function"
    },
    {
      "inputs": [
        {
          "internalType": "bytes32",
          "name": "_postId",
          "type": "bytes32"
        },
        {
          "internalType": "uint256",
          "name": "_amount",
          "type": "uint256"
        },
        {
          "internalType": "uint256",
          "name": "_hashCommitment",
          "type": "uint256"
        }
      ],
      "name": "withdrawFunds",
      "outputs": [],
      "stateMutability": "payable",
      "type": "function"
    }
  ],
  "bytecode": "0x608060405230600460006101000a81548173ffffffffffffffffffffffffffffffffffffffff021916908373ffffffffffffffffffffffffffffffffffffffff1602179055503480156200005257600080fd5b5060405162001f9b38038062001f9b8339818101604052810190620000789190620001c5565b620000986200008c620000e060201b60201c565b620000e860201b60201c565b80600360006101000a81548173ffffffffffffffffffffffffffffffffffffffff021916908373ffffffffffffffffffffffffffffffffffffffff160217905550506200024a565b600033905090565b6000600260009054906101000a900473ffffffffffffffffffffffffffffffffffffffff16905081600260006101000a81548173ffffffffffffffffffffffffffffffffffffffff021916908373ffffffffffffffffffffffffffffffffffffffff1602179055508173ffffffffffffffffffffffffffffffffffffffff168173ffffffffffffffffffffffffffffffffffffffff167f8be0079c531659141344cd1fd0a4f28419497f9722a3daafe3b4186f6b6457e060405160405180910390a35050565b600081519050620001bf8162000230565b92915050565b600060208284031215620001de57620001dd6200022b565b5b6000620001ee84828501620001ae565b91505092915050565b600062000204826200020b565b9050919050565b600073ffffffffffffffffffffffffffffffffffffffff82169050919050565b600080fd5b6200023b81620001f7565b81146200024757600080fd5b50565b611d41806200025a6000396000f3fe60806040526004361061011f5760003560e01c80639173e81f116100a0578063bde1061211610064578063bde1061214610414578063d05501431461043d578063dff72dec14610459578063f2fde38b1461049a578063f6b4dfb4146104c35761011f565b80639173e81f146102f757806395c5267d146103345780639b24b3b01461035d578063b30b483f1461039a578063b9c78c2b146103d75761011f565b8063715018a6116100e7578063715018a6146101fe57806375e618c91461021557806385115d3d146102525780638da5cb5b1461028f5780638fd0de57146102ba5761011f565b80631c69b46414610124578063229f463d1461014f5780632b7ac3f31461016b5780633476a5ad1461019657806340566790146101d3575b600080fd5b34801561013057600080fd5b506101396104ee565b604051610146919061189b565b60405180910390f35b6101696004803603810190610164919061115c565b6104fe565b005b34801561017757600080fd5b50610180610617565b60405161018d9190611780565b60405180910390f35b3480156101a257600080fd5b506101bd60048036038101906101b8919061115c565b61063d565b6040516101ca919061189b565b60405180910390f35b3480156101df57600080fd5b506101e861065d565b6040516101f591906116c7565b60405180910390f35b34801561020a57600080fd5b506102136106b5565b005b34801561022157600080fd5b5061023c600480360381019061023791906112aa565b6106c9565b60405161024991906118b6565b60405180910390f35b34801561025e57600080fd5b5061027960048036038101906102749190611189565b6106f6565b604051610286919061189b565b60405180910390f35b34801561029b57600080fd5b506102a46107d1565b6040516102b19190611665565b60405180910390f35b3480156102c657600080fd5b506102e160048036038101906102dc91906112aa565b6107fb565b6040516102ee919061189b565b60405180910390f35b34801561030357600080fd5b5061031e60048036038101906103199190611189565b61081f565b60405161032b919061189b565b60405180910390f35b34801561034057600080fd5b5061035b60048036038101906103569190611217565b6108fa565b005b34801561036957600080fd5b50610384600480360381019061037f91906112aa565b6109ad565b604051610391919061189b565b60405180910390f35b3480156103a657600080fd5b506103c160048036038101906103bc91906112aa565b6109cd565b6040516103ce919061189b565b60405180910390f35b3480156103e357600080fd5b506103fe60048036038101906103f991906112aa565b6109f5565b60405161040b919061189b565b60405180910390f35b34801561042057600080fd5b5061043b600480360381019061043691906112aa565b610a15565b005b61045760048036038101906104529190611257565b610a6e565b005b34801561046557600080fd5b50610480600480360381019061047b919061115c565b610c14565b60405161049195949392919061172d565b60405180910390f35b3480156104a657600080fd5b506104c160048036038101906104bc919061112f565b610c4a565b005b3480156104cf57600080fd5b506104d8610cce565b6040516104e59190611665565b60405180910390f35b60006104f8610cf4565b47905090565b60003411610541576040517f08c379a00000000000000000000000000000000000000000000000000000000081526004016105389061187b565b60405180910390fd5b6006600082815260200190815260200160002060030154600660008381526020019081526020016000206002015410156105b0576040517f08c379a00000000000000000000000000000000000000000000000000000000081526004016105a7906117fb565b60405180910390fd5b346006600083815260200190815260200160002060040160008282546105d691906119ad565b925050819055507f62b074648dd932d8b56dbf1b320b53a56881e960cd4448e11e3f7db0069efc4b8160405161060c91906116e9565b60405180910390a150565b600360009054906101000a900473ffffffffffffffffffffffffffffffffffffffff1681565b600060066000838152602001908152602001600020600401549050919050565b606060058054806020026020016040519081016040528092919081815260200182805480156106ab57602002820191906000526020600020905b815481526020019060010190808311610697575b5050505050905090565b6106bd610cf4565b6106c76000610d72565b565b60006001600083815260200190815260200160002060000160009054906101000a900460ff169050919050565b60006107288686868686600360009054906101000a900473ffffffffffffffffffffffffffffffffffffffff16610e38565b600160066000898152602001908152602001600020600301600082825461074f91906119ad565b9250508190555061075f84611061565b7f0f571fcde2131c4b8accf487ffb9c72ae528b2cfff5aea2de932d57fe9347aa087600660008a8152602001908152602001600020600301546040516107a6929190611704565b60405180910390a1600660008881526020019081526020016000206003015490509695505050505050565b6000600260009054906101000a900473ffffffffffffffffffffffffffffffffffffffff16905090565b6005818154811061080b57600080fd5b906000526020600020016000915090505481565b60006108518686868686600360009054906101000a900473ffffffffffffffffffffffffffffffffffffffff16610e38565b600160066000898152602001908152602001600020600201600082825461087891906119ad565b9250508190555061088884611061565b7fcaf9bfec47e3c7f8879f6eb731faf23a2dc50c5424a1dc61982bba2b26c2004587600660008a8152602001908152602001600020600201546040516108cf929190611704565b60405180910390a1600660008881526020019081526020016000206002015490509695505050505050565b60006040518060a00160405280848152602001838152602001600081526020016000815260200160008152509050806006600085815260200190815260200160002060008201518160000155602082015181600101556040820151816002015560608201518160030155608082015181600401559050507f89afc73d9070642128ac1a96ea8f614d69e6274b88e568817c5ab86d217bed5a836040516109a091906116e9565b60405180910390a1505050565b600060016000838152602001908152602001600020600101549050919050565b6000600582815481106109e3576109e2611af9565b5b90600052602060002001549050919050565b600060016000838152602001908152602001600020600201549050919050565b6005819080600181540180825580915050600190039060005260206000200160009091909190915055807f31d0d431762af1b333d4fef318e03efc7b702fe91dd1f0aa2c72e699bebcb48960405160405180910390a250565b60008211610ab1576040517f08c379a0000000000000000000000000000000000000000000000000000000008152600401610aa8906117db565b60405180910390fd5b6006600084815260200190815260200160002060040154821115610b0a576040517f08c379a0000000000000000000000000000000000000000000000000000000008152600401610b019061181b565b60405180910390fd5b60066000848152602001908152602001600020600101548114610b62576040517f08c379a0000000000000000000000000000000000000000000000000000000008152600401610b599061183b565b60405180910390fd5b3373ffffffffffffffffffffffffffffffffffffffff166108fc839081150290604051600060405180830381858888f19350505050158015610ba8573d6000803e3d6000fd5b5081600660008581526020019081526020016000206004016000828254610bcf9190611a03565b925050819055507fa4dfdde26c326c8cced668e6a665f4efc3f278bdc9101cdedc4f725abd63a1ee8383604051610c07929190611704565b60405180910390a1505050565b60066020528060005260406000206000915090508060000154908060010154908060020154908060030154908060040154905085565b610c52610cf4565b600073ffffffffffffffffffffffffffffffffffffffff168173ffffffffffffffffffffffffffffffffffffffff161415610cc2576040517f08c379a0000000000000000000000000000000000000000000000000000000008152600401610cb9906117bb565b60405180910390fd5b610ccb81610d72565b50565b600460009054906101000a900473ffffffffffffffffffffffffffffffffffffffff1681565b610cfc61108f565b73ffffffffffffffffffffffffffffffffffffffff16610d1a6107d1565b73ffffffffffffffffffffffffffffffffffffffff1614610d70576040517f08c379a0000000000000000000000000000000000000000000000000000000008152600401610d679061185b565b60405180910390fd5b565b6000600260009054906101000a900473ffffffffffffffffffffffffffffffffffffffff16905081600260006101000a81548173ffffffffffffffffffffffffffffffffffffffff021916908373ffffffffffffffffffffffffffffffffffffffff1602179055508173ffffffffffffffffffffffffffffffffffffffff168173ffffffffffffffffffffffffffffffffffffffff167f8be0079c531659141344cd1fd0a4f28419497f9722a3daafe3b4186f6b6457e060405160405180910390a35050565b60008085815260200190815260200160002060009054906101000a900460ff1615610e98576040517f08c379a0000000000000000000000000000000000000000000000000000000008152600401610e8f9061179b565b60405180910390fd5b6000610ea387611097565b90508173ffffffffffffffffffffffffffffffffffffffff16635fe8c13b604051806040016040528086600060088110610ee057610edf611af9565b5b6020020135815260200186600160088110610efe57610efd611af9565b5b60200201358152506040518060400160405280604051806040016040528089600260088110610f3057610f2f611af9565b5b6020020135815260200189600360088110610f4e57610f4d611af9565b5b60200201358152508152602001604051806040016040528089600460088110610f7a57610f79611af9565b5b6020020135815260200189600560088110610f9857610f97611af9565b5b6020020135815250815250604051806040016040528088600660088110610fc257610fc1611af9565b5b6020020135815260200188600760088110610fe057610fdf611af9565b5b602002013581525060405180608001604052808c81526020018b81526020018781526020018a8152506040518563ffffffff1660e01b81526004016110289493929190611680565b60006040518083038186803b15801561104057600080fd5b505afa158015611054573d6000803e3d6000fd5b5050505050505050505050565b600160008083815260200190815260200160002060006101000a81548160ff02191690831515021790555050565b600033905090565b60006008826040516020016110ac919061164a565b6040516020818303038152906040528051906020012060001c901c9050919050565b6000813590506110dd81611cc6565b92915050565b6000819050826020600802820111156110ff576110fe611b28565b5b92915050565b60008135905061111481611cdd565b92915050565b60008135905061112981611cf4565b92915050565b60006020828403121561114557611144611b2d565b5b6000611153848285016110ce565b91505092915050565b60006020828403121561117257611171611b2d565b5b600061118084828501611105565b91505092915050565b6000806000806000806101a087890312156111a7576111a6611b2d565b5b60006111b589828a01611105565b96505060206111c689828a01611105565b95505060406111d789828a0161111a565b94505060606111e889828a0161111a565b93505060806111f989828a0161111a565b92505060a061120a89828a016110e3565b9150509295509295509295565b6000806040838503121561122e5761122d611b2d565b5b600061123c85828601611105565b925050602061124d8582860161111a565b9150509250929050565b6000806000606084860312156112705761126f611b2d565b5b600061127e86828701611105565b935050602061128f8682870161111a565b92505060406112a08682870161111a565b9150509250925092565b6000602082840312156112c0576112bf611b2d565b5b60006112ce8482850161111a565b91505092915050565b60006112e3838361136d565b60408301905092915050565b60006112fb838361161d565b60208301905092915050565b61131081611a37565b82525050565b61131f816118ff565b611329818461195f565b9250611334826118d1565b8060005b8381101561136557815161134c87826112d7565b96506113578361192b565b925050600181019050611338565b505050505050565b6113768161190a565b611380818461196a565b925061138b826118db565b8060005b838110156113bc5781516113a387826112ef565b96506113ae83611938565b92505060018101905061138f565b505050505050565b6113cd8161190a565b6113d78184611975565b92506113e2826118db565b8060005b838110156114135781516113fa87826112ef565b965061140583611938565b9250506001810190506113e6565b505050505050565b61142481611915565b61142e8184611980565b9250611439826118e5565b8060005b8381101561146a57815161145187826112ef565b965061145c83611945565b92505060018101905061143d565b505050505050565b600061147d82611920565b611487818561198b565b9350611492836118ef565b8060005b838110156114c35781516114aa88826112ef565b97506114b583611952565b925050600181019050611496565b5085935050505092915050565b6114d981611a49565b82525050565b6114f06114eb82611a49565b611ac0565b82525050565b6114ff81611a8a565b82525050565b600061151260368361199c565b915061151d82611b32565b604082019050919050565b600061153560268361199c565b915061154082611b81565b604082019050919050565b600061155860108361199c565b915061156382611bd0565b602082019050919050565b600061157b601b8361199c565b915061158682611bf9565b602082019050919050565b600061159e60128361199c565b91506115a982611c22565b602082019050919050565b60006115c1601c8361199c565b91506115cc82611c4b565b602082019050919050565b60006115e460208361199c565b91506115ef82611c74565b602082019050919050565b600061160760168361199c565b915061161282611c9d565b602082019050919050565b61162681611a73565b82525050565b61163581611a73565b82525050565b61164481611a7d565b82525050565b600061165682846114df565b60208201915081905092915050565b600060208201905061167a6000830184611307565b92915050565b60006101808201905061169660008301876113c4565b6116a36040830186611316565b6116b060c08301856113c4565b6116be61010083018461141b565b95945050505050565b600060208201905081810360008301526116e18184611472565b905092915050565b60006020820190506116fe60008301846114d0565b92915050565b600060408201905061171960008301856114d0565b611726602083018461162c565b9392505050565b600060a08201905061174260008301886114d0565b61174f602083018761162c565b61175c604083018661162c565b611769606083018561162c565b611776608083018461162c565b9695505050505050565b600060208201905061179560008301846114f6565b92915050565b600060208201905081810360008301526117b481611505565b9050919050565b600060208201905081810360008301526117d481611528565b9050919050565b600060208201905081810360008301526117f48161154b565b9050919050565b600060208201905081810360008301526118148161156e565b9050919050565b6000602082019050818103600083015261183481611591565b9050919050565b60006020820190508181036000830152611854816115b4565b9050919050565b60006020820190508181036000830152611874816115d7565b9050919050565b60006020820190508181036000830152611894816115fa565b9050919050565b60006020820190506118b0600083018461162c565b92915050565b60006020820190506118cb600083018461163b565b92915050565b6000819050919050565b6000819050919050565b6000819050919050565b6000819050602082019050919050565b600060029050919050565b600060029050919050565b600060049050919050565b600081519050919050565b6000602082019050919050565b6000602082019050919050565b6000602082019050919050565b6000602082019050919050565b600081905092915050565b600081905092915050565b600081905092915050565b600081905092915050565b600082825260208201905092915050565b600082825260208201905092915050565b60006119b882611a73565b91506119c383611a73565b9250827fffffffffffffffffffffffffffffffffffffffffffffffffffffffffffffffff038211156119f8576119f7611aca565b5b828201905092915050565b6000611a0e82611a73565b9150611a1983611a73565b925082821015611a2c57611a2b611aca565b5b828203905092915050565b6000611a4282611a53565b9050919050565b6000819050919050565b600073ffffffffffffffffffffffffffffffffffffffff82169050919050565b6000819050919050565b600060ff82169050919050565b6000611a9582611a9c565b9050919050565b6000611aa782611aae565b9050919050565b6000611ab982611a53565b9050919050565b6000819050919050565b7f4e487b7100000000000000000000000000000000000000000000000000000000600052601160045260246000fd5b7f4e487b7100000000000000000000000000000000000000000000000000000000600052603260045260246000fd5b600080fd5b600080fd5b7f53656d6170686f7265436f72653a20796f752063616e6e6f742075736520746860008201527f652073616d65206e756c6c696669657220747769636500000000000000000000602082015250565b7f4f776e61626c653a206e6577206f776e657220697320746865207a65726f206160008201527f6464726573730000000000000000000000000000000000000000000000000000602082015250565b7f6d75737420626520706f73697469766500000000000000000000000000000000600082015250565b7f5468697320706f73742063616e206e6f742062652066756e6465640000000000600082015250565b7f4e6f7420656e6f7567682062616c616e63650000000000000000000000000000600082015250565b7f596f75722068617368636f6d6d69746d656e742069732077726f6e6700000000600082015250565b7f4f776e61626c653a2063616c6c6572206973206e6f7420746865206f776e6572600082015250565b7f6d757374206265206d6f7265207468616e207a65726f00000000000000000000600082015250565b611ccf81611a37565b8114611cda57600080fd5b50565b611ce681611a49565b8114611cf157600080fd5b50565b611cfd81611a73565b8114611d0857600080fd5b5056fea26469706673582212205532ff7199248785faefc2cb51a3696138bc3f4f7301c71ef1f1d32ed657891e64736f6c63430008070033",
  "linkReferences": {},
  "deployedLinkReferences": {}
}