{
  "_format": "hh-sol-artifact-1",
  "contractName": "zkNews",
  "sourceName": "contracts/zkNews.sol",
  "abi": [
    {
      "inputs": [
        {
          "internalType": "address",
          "name": "_verifier",
          "type": "address"
        }
      ],
      "stateMutability": "nonpayable",
      "type": "constructor"
    },
    {
      "anonymous": false,
      "inputs": [
        {
          "indexed": false,
          "internalType": "bytes32",
          "name": "postId",
          "type": "bytes32"
        }
      ],
      "name": "Funded",
      "type": "event"
    },
    {
      "anonymous": false,
      "inputs": [
        {
          "indexed": true,
          "internalType": "uint256",
          "name": "groupId",
          "type": "uint256"
        },
        {
          "indexed": false,
          "internalType": "uint8",
          "name": "depth",
          "type": "uint8"
        },
        {
          "indexed": false,
          "internalType": "uint256",
          "name": "zeroValue",
          "type": "uint256"
        }
      ],
      "name": "GroupCreated",
      "type": "event"
    },
    {
      "anonymous": false,
      "inputs": [
        {
          "indexed": true,
          "internalType": "uint256",
          "name": "identityCommitment",
          "type": "uint256"
        }
      ],
      "name": "IdentityCommitment",
      "type": "event"
    },
    {
      "anonymous": false,
      "inputs": [
        {
          "indexed": true,
          "internalType": "uint256",
          "name": "groupId",
          "type": "uint256"
        },
        {
          "indexed": false,
          "internalType": "uint256",
          "name": "identityCommitment",
          "type": "uint256"
        },
        {
          "indexed": false,
          "internalType": "uint256",
          "name": "root",
          "type": "uint256"
        }
      ],
      "name": "MemberAdded",
      "type": "event"
    },
    {
      "anonymous": false,
      "inputs": [
        {
          "indexed": true,
          "internalType": "uint256",
          "name": "groupId",
          "type": "uint256"
        },
        {
          "indexed": false,
          "internalType": "uint256",
          "name": "identityCommitment",
          "type": "uint256"
        },
        {
          "indexed": false,
          "internalType": "uint256",
          "name": "root",
          "type": "uint256"
        }
      ],
      "name": "MemberRemoved",
      "type": "event"
    },
    {
      "anonymous": false,
      "inputs": [
        {
          "indexed": false,
          "internalType": "bytes32",
          "name": "postId",
          "type": "bytes32"
        }
      ],
      "name": "NewPost",
      "type": "event"
    },
    {
      "anonymous": false,
      "inputs": [
        {
          "indexed": false,
          "internalType": "uint256",
          "name": "nullifierHash",
          "type": "uint256"
        }
      ],
      "name": "NullifierHashAdded",
      "type": "event"
    },
    {
      "anonymous": false,
      "inputs": [
        {
          "indexed": true,
          "internalType": "address",
          "name": "previousOwner",
          "type": "address"
        },
        {
          "indexed": true,
          "internalType": "address",
          "name": "newOwner",
          "type": "address"
        }
      ],
      "name": "OwnershipTransferred",
      "type": "event"
    },
    {
      "anonymous": false,
      "inputs": [
        {
          "indexed": false,
          "internalType": "bytes32",
          "name": "postId",
          "type": "bytes32"
        },
        {
          "indexed": false,
          "internalType": "uint256",
          "name": "dislikes",
          "type": "uint256"
        }
      ],
      "name": "PostDisliked",
      "type": "event"
    },
    {
      "anonymous": false,
      "inputs": [
        {
          "indexed": false,
          "internalType": "bytes32",
          "name": "postId",
          "type": "bytes32"
        },
        {
          "indexed": false,
          "internalType": "uint256",
          "name": "likes",
          "type": "uint256"
        }
      ],
      "name": "PostLiked",
      "type": "event"
    },
    {
      "anonymous": false,
      "inputs": [
        {
          "indexed": false,
          "internalType": "bytes32",
          "name": "postId",
          "type": "bytes32"
        },
        {
          "indexed": false,
          "internalType": "uint256",
          "name": "balance",
          "type": "uint256"
        }
      ],
      "name": "Withdrawal",
      "type": "event"
    },
    {
      "inputs": [],
      "name": "contractAddress",
      "outputs": [
        {
          "internalType": "address",
          "name": "",
          "type": "address"
        }
      ],
      "stateMutability": "view",
      "type": "function"
    },
    {
      "inputs": [
        {
          "internalType": "bytes32",
          "name": "postId",
          "type": "bytes32"
        },
        {
          "internalType": "bytes32",
          "name": "signal",
          "type": "bytes32"
        },
        {
          "internalType": "uint256",
          "name": "root",
          "type": "uint256"
        },
        {
          "internalType": "uint256",
          "name": "nullifierHash",
          "type": "uint256"
        },
        {
          "internalType": "uint256",
          "name": "externalNullifier",
          "type": "uint256"
        },
        {
          "internalType": "uint256[8]",
          "name": "proof",
          "type": "uint256[8]"
        }
      ],
      "name": "dislikePost",
      "outputs": [
        {
          "internalType": "uint256",
          "name": "",
          "type": "uint256"
        }
      ],
      "stateMutability": "nonpayable",
      "type": "function"
    },
    {
      "inputs": [
        {
          "internalType": "bytes32",
          "name": "postId",
          "type": "bytes32"
        }
      ],
      "name": "fundPost",
      "outputs": [],
      "stateMutability": "payable",
      "type": "function"
    },
    {
      "inputs": [],
      "name": "getAllFunds",
      "outputs": [
        {
          "internalType": "uint256",
          "name": "",
          "type": "uint256"
        }
      ],
      "stateMutability": "view",
      "type": "function"
    },
    {
      "inputs": [
        {
          "internalType": "uint256",
          "name": "groupId",
          "type": "uint256"
        }
      ],
      "name": "getDepth",
      "outputs": [
        {
          "internalType": "uint8",
          "name": "",
          "type": "uint8"
        }
      ],
      "stateMutability": "view",
      "type": "function"
    },
    {
      "inputs": [
        {
          "internalType": "uint256",
          "name": "_index",
          "type": "uint256"
        }
      ],
      "name": "getIdentityCommitment",
      "outputs": [
        {
          "internalType": "uint256",
          "name": "",
          "type": "uint256"
        }
      ],
      "stateMutability": "view",
      "type": "function"
    },
    {
      "inputs": [],
      "name": "getIdentityCommitments",
      "outputs": [
        {
          "internalType": "uint256[]",
          "name": "",
          "type": "uint256[]"
        }
      ],
      "stateMutability": "view",
      "type": "function"
    },
    {
      "inputs": [
        {
          "internalType": "uint256",
          "name": "groupId",
          "type": "uint256"
        }
      ],
      "name": "getNumberOfLeaves",
      "outputs": [
        {
          "internalType": "uint256",
          "name": "",
          "type": "uint256"
        }
      ],
      "stateMutability": "view",
      "type": "function"
    },
    {
      "inputs": [
        {
          "internalType": "bytes32",
          "name": "postId",
          "type": "bytes32"
        }
      ],
      "name": "getPostFunds",
      "outputs": [
        {
          "internalType": "uint256",
          "name": "",
          "type": "uint256"
        }
      ],
      "stateMutability": "view",
      "type": "function"
    },
    {
      "inputs": [
        {
          "internalType": "uint256",
          "name": "groupId",
          "type": "uint256"
        }
      ],
      "name": "getRoot",
      "outputs": [
        {
          "internalType": "uint256",
          "name": "",
          "type": "uint256"
        }
      ],
      "stateMutability": "view",
      "type": "function"
    },
    {
      "inputs": [
        {
          "internalType": "uint256",
          "name": "",
          "type": "uint256"
        }
      ],
      "name": "identityCommitments",
      "outputs": [
        {
          "internalType": "uint256",
          "name": "",
          "type": "uint256"
        }
      ],
      "stateMutability": "view",
      "type": "function"
    },
    {
      "inputs": [
        {
          "internalType": "uint256",
          "name": "_leaf",
          "type": "uint256"
        }
      ],
      "name": "insertIdentityAsClient",
      "outputs": [],
      "stateMutability": "nonpayable",
      "type": "function"
    },
    {
      "inputs": [
        {
          "internalType": "bytes32",
          "name": "postId",
          "type": "bytes32"
        },
        {
          "internalType": "bytes32",
          "name": "signal",
          "type": "bytes32"
        },
        {
          "internalType": "uint256",
          "name": "root",
          "type": "uint256"
        },
        {
          "internalType": "uint256",
          "name": "nullifierHash",
          "type": "uint256"
        },
        {
          "internalType": "uint256",
          "name": "externalNullifier",
          "type": "uint256"
        },
        {
          "internalType": "uint256[8]",
          "name": "proof",
          "type": "uint256[8]"
        }
      ],
      "name": "likePost",
      "outputs": [
        {
          "internalType": "uint256",
          "name": "",
          "type": "uint256"
        }
      ],
      "stateMutability": "nonpayable",
      "type": "function"
    },
    {
      "inputs": [],
      "name": "owner",
      "outputs": [
        {
          "internalType": "address",
          "name": "",
          "type": "address"
        }
      ],
      "stateMutability": "view",
      "type": "function"
    },
    {
      "inputs": [
        {
          "internalType": "bytes32",
          "name": "postId",
          "type": "bytes32"
        },
        {
          "internalType": "uint256",
          "name": "hashCommitment",
          "type": "uint256"
        }
      ],
      "name": "postNews",
      "outputs": [],
      "stateMutability": "nonpayable",
      "type": "function"
    },
    {
      "inputs": [
        {
          "internalType": "bytes32",
          "name": "",
          "type": "bytes32"
        }
      ],
      "name": "posts",
      "outputs": [
        {
          "internalType": "bytes32",
          "name": "postId",
          "type": "bytes32"
        },
        {
          "internalType": "uint256",
          "name": "hashCommitment",
          "type": "uint256"
        },
        {
          "internalType": "uint256",
          "name": "likes",
          "type": "uint256"
        },
        {
          "internalType": "uint256",
          "name": "dislikes",
          "type": "uint256"
        },
        {
          "internalType": "uint256",
          "name": "balance",
          "type": "uint256"
        }
      ],
      "stateMutability": "view",
      "type": "function"
    },
    {
      "inputs": [],
      "name": "renounceOwnership",
      "outputs": [],
      "stateMutability": "nonpayable",
      "type": "function"
    },
    {
      "inputs": [
        {
          "internalType": "address",
          "name": "newOwner",
          "type": "address"
        }
      ],
      "name": "transferOwnership",
      "outputs": [],
      "stateMutability": "nonpayable",
      "type": "function"
    },
    {
      "inputs": [],
      "name": "verifier",
      "outputs": [
        {
          "internalType": "contract IVerifier",
          "name": "",
          "type": "address"
        }
      ],
      "stateMutability": "view",
      "type": "function"
    },
    {
      "inputs": [
        {
          "internalType": "bytes32",
          "name": "_postId",
          "type": "bytes32"
        },
        {
          "internalType": "uint256",
          "name": "_amount",
          "type": "uint256"
        },
        {
          "internalType": "uint256",
          "name": "_hashCommitment",
          "type": "uint256"
        }
      ],
      "name": "withdrawFunds",
      "outputs": [],
      "stateMutability": "nonpayable",
      "type": "function"
    }
  ],
  "bytecode": "0x608060405230600460006101000a81548173ffffffffffffffffffffffffffffffffffffffff021916908373ffffffffffffffffffffffffffffffffffffffff1602179055503480156200005257600080fd5b5060405162001d6f38038062001d6f8339818101604052810190620000789190620001c5565b620000986200008c620000e060201b60201c565b620000e860201b60201c565b80600360006101000a81548173ffffffffffffffffffffffffffffffffffffffff021916908373ffffffffffffffffffffffffffffffffffffffff160217905550506200024a565b600033905090565b6000600260009054906101000a900473ffffffffffffffffffffffffffffffffffffffff16905081600260006101000a81548173ffffffffffffffffffffffffffffffffffffffff021916908373ffffffffffffffffffffffffffffffffffffffff1602179055508173ffffffffffffffffffffffffffffffffffffffff168173ffffffffffffffffffffffffffffffffffffffff167f8be0079c531659141344cd1fd0a4f28419497f9722a3daafe3b4186f6b6457e060405160405180910390a35050565b600081519050620001bf8162000230565b92915050565b600060208284031215620001de57620001dd6200022b565b5b6000620001ee84828501620001ae565b91505092915050565b600062000204826200020b565b9050919050565b600073ffffffffffffffffffffffffffffffffffffffff82169050919050565b600080fd5b6200023b81620001f7565b81146200024757600080fd5b50565b611b15806200025a6000396000f3fe60806040526004361061011f5760003560e01c80639173e81f116100a0578063bde1061211610064578063bde1061214610414578063d05501431461043d578063dff72dec14610466578063f2fde38b146104a7578063f6b4dfb4146104d05761011f565b80639173e81f146102f757806395c5267d146103345780639b24b3b01461035d578063b30b483f1461039a578063b9c78c2b146103d75761011f565b8063715018a6116100e7578063715018a6146101fe57806375e618c91461021557806385115d3d146102525780638da5cb5b1461028f5780638fd0de57146102ba5761011f565b80631c69b46414610124578063229f463d1461014f5780632b7ac3f31461016b5780633476a5ad1461019657806340566790146101d3575b600080fd5b34801561013057600080fd5b506101396104fb565b60405161014691906116ea565b60405180910390f35b61016960048036038101906101649190611074565b61050b565b005b34801561017757600080fd5b50610180610572565b60405161018d919061162f565b60405180910390f35b3480156101a257600080fd5b506101bd60048036038101906101b89190611074565b610598565b6040516101ca91906116ea565b60405180910390f35b3480156101df57600080fd5b506101e86105b8565b6040516101f59190611576565b60405180910390f35b34801561020a57600080fd5b50610213610610565b005b34801561022157600080fd5b5061023c600480360381019061023791906111c2565b610624565b6040516102499190611705565b60405180910390f35b34801561025e57600080fd5b50610279600480360381019061027491906110a1565b610651565b60405161028691906116ea565b60405180910390f35b34801561029b57600080fd5b506102a461072c565b6040516102b19190611514565b60405180910390f35b3480156102c657600080fd5b506102e160048036038101906102dc91906111c2565b610756565b6040516102ee91906116ea565b60405180910390f35b34801561030357600080fd5b5061031e600480360381019061031991906110a1565b61077a565b60405161032b91906116ea565b60405180910390f35b34801561034057600080fd5b5061035b6004803603810190610356919061112f565b610855565b005b34801561036957600080fd5b50610384600480360381019061037f91906111c2565b610908565b60405161039191906116ea565b60405180910390f35b3480156103a657600080fd5b506103c160048036038101906103bc91906111c2565b610928565b6040516103ce91906116ea565b60405180910390f35b3480156103e357600080fd5b506103fe60048036038101906103f991906111c2565b610950565b60405161040b91906116ea565b60405180910390f35b34801561042057600080fd5b5061043b600480360381019061043691906111c2565b610970565b005b34801561044957600080fd5b50610464600480360381019061045f919061116f565b6109c9565b005b34801561047257600080fd5b5061048d60048036038101906104889190611074565b610b2c565b60405161049e9594939291906115dc565b60405180910390f35b3480156104b357600080fd5b506104ce60048036038101906104c99190611047565b610b62565b005b3480156104dc57600080fd5b506104e5610be6565b6040516104f29190611514565b60405180910390f35b6000610505610c0c565b47905090565b3460066000838152602001908152602001600020600401600082825461053191906117fc565b925050819055507f62b074648dd932d8b56dbf1b320b53a56881e960cd4448e11e3f7db0069efc4b816040516105679190611598565b60405180910390a150565b600360009054906101000a900473ffffffffffffffffffffffffffffffffffffffff1681565b600060066000838152602001908152602001600020600401549050919050565b6060600580548060200260200160405190810160405280929190818152602001828054801561060657602002820191906000526020600020905b8154815260200190600101908083116105f2575b5050505050905090565b610618610c0c565b6106226000610c8a565b565b60006001600083815260200190815260200160002060000160009054906101000a900460ff169050919050565b60006106838686868686600360009054906101000a900473ffffffffffffffffffffffffffffffffffffffff16610d50565b60016006600089815260200190815260200160002060030160008282546106aa91906117fc565b925050819055506106ba84610f79565b7f0f571fcde2131c4b8accf487ffb9c72ae528b2cfff5aea2de932d57fe9347aa087600660008a8152602001908152602001600020600301546040516107019291906115b3565b60405180910390a1600660008881526020019081526020016000206003015490509695505050505050565b6000600260009054906101000a900473ffffffffffffffffffffffffffffffffffffffff16905090565b6005818154811061076657600080fd5b906000526020600020016000915090505481565b60006107ac8686868686600360009054906101000a900473ffffffffffffffffffffffffffffffffffffffff16610d50565b60016006600089815260200190815260200160002060020160008282546107d391906117fc565b925050819055506107e384610f79565b7fcaf9bfec47e3c7f8879f6eb731faf23a2dc50c5424a1dc61982bba2b26c2004587600660008a81526020019081526020016000206002015460405161082a9291906115b3565b60405180910390a1600660008881526020019081526020016000206002015490509695505050505050565b60006040518060a00160405280848152602001838152602001600081526020016000815260200160008152509050806006600085815260200190815260200160002060008201518160000155602082015181600101556040820151816002015560608201518160030155608082015181600401559050507f89afc73d9070642128ac1a96ea8f614d69e6274b88e568817c5ab86d217bed5a836040516108fb9190611598565b60405180910390a1505050565b600060016000838152602001908152602001600020600101549050919050565b60006005828154811061093e5761093d611948565b5b90600052602060002001549050919050565b600060016000838152602001908152602001600020600201549050919050565b6005819080600181540180825580915050600190039060005260206000200160009091909190915055807f31d0d431762af1b333d4fef318e03efc7b702fe91dd1f0aa2c72e699bebcb48960405160405180910390a250565b6006600084815260200190815260200160002060040154821115610a22576040517f08c379a0000000000000000000000000000000000000000000000000000000008152600401610a199061168a565b60405180910390fd5b60066000848152602001908152602001600020600101548114610a7a576040517f08c379a0000000000000000000000000000000000000000000000000000000008152600401610a71906116aa565b60405180910390fd5b3373ffffffffffffffffffffffffffffffffffffffff166108fc839081150290604051600060405180830381858888f19350505050158015610ac0573d6000803e3d6000fd5b5081600660008581526020019081526020016000206004016000828254610ae79190611852565b925050819055507fa4dfdde26c326c8cced668e6a665f4efc3f278bdc9101cdedc4f725abd63a1ee8383604051610b1f9291906115b3565b60405180910390a1505050565b60066020528060005260406000206000915090508060000154908060010154908060020154908060030154908060040154905085565b610b6a610c0c565b600073ffffffffffffffffffffffffffffffffffffffff168173ffffffffffffffffffffffffffffffffffffffff161415610bda576040517f08c379a0000000000000000000000000000000000000000000000000000000008152600401610bd19061166a565b60405180910390fd5b610be381610c8a565b50565b600460009054906101000a900473ffffffffffffffffffffffffffffffffffffffff1681565b610c14610fa7565b73ffffffffffffffffffffffffffffffffffffffff16610c3261072c565b73ffffffffffffffffffffffffffffffffffffffff1614610c88576040517f08c379a0000000000000000000000000000000000000000000000000000000008152600401610c7f906116ca565b60405180910390fd5b565b6000600260009054906101000a900473ffffffffffffffffffffffffffffffffffffffff16905081600260006101000a81548173ffffffffffffffffffffffffffffffffffffffff021916908373ffffffffffffffffffffffffffffffffffffffff1602179055508173ffffffffffffffffffffffffffffffffffffffff168173ffffffffffffffffffffffffffffffffffffffff167f8be0079c531659141344cd1fd0a4f28419497f9722a3daafe3b4186f6b6457e060405160405180910390a35050565b60008085815260200190815260200160002060009054906101000a900460ff1615610db0576040517f08c379a0000000000000000000000000000000000000000000000000000000008152600401610da79061164a565b60405180910390fd5b6000610dbb87610faf565b90508173ffffffffffffffffffffffffffffffffffffffff16635fe8c13b604051806040016040528086600060088110610df857610df7611948565b5b6020020135815260200186600160088110610e1657610e15611948565b5b60200201358152506040518060400160405280604051806040016040528089600260088110610e4857610e47611948565b5b6020020135815260200189600360088110610e6657610e65611948565b5b60200201358152508152602001604051806040016040528089600460088110610e9257610e91611948565b5b6020020135815260200189600560088110610eb057610eaf611948565b5b6020020135815250815250604051806040016040528088600660088110610eda57610ed9611948565b5b6020020135815260200188600760088110610ef857610ef7611948565b5b602002013581525060405180608001604052808c81526020018b81526020018781526020018a8152506040518563ffffffff1660e01b8152600401610f40949392919061152f565b60006040518083038186803b158015610f5857600080fd5b505afa158015610f6c573d6000803e3d6000fd5b5050505050505050505050565b600160008083815260200190815260200160002060006101000a81548160ff02191690831515021790555050565b600033905090565b6000600882604051602001610fc491906114f9565b6040516020818303038152906040528051906020012060001c901c9050919050565b600081359050610ff581611a9a565b92915050565b60008190508260206008028201111561101757611016611977565b5b92915050565b60008135905061102c81611ab1565b92915050565b60008135905061104181611ac8565b92915050565b60006020828403121561105d5761105c61197c565b5b600061106b84828501610fe6565b91505092915050565b60006020828403121561108a5761108961197c565b5b60006110988482850161101d565b91505092915050565b6000806000806000806101a087890312156110bf576110be61197c565b5b60006110cd89828a0161101d565b96505060206110de89828a0161101d565b95505060406110ef89828a01611032565b945050606061110089828a01611032565b935050608061111189828a01611032565b92505060a061112289828a01610ffb565b9150509295509295509295565b600080604083850312156111465761114561197c565b5b60006111548582860161101d565b925050602061116585828601611032565b9150509250929050565b6000806000606084860312156111885761118761197c565b5b60006111968682870161101d565b93505060206111a786828701611032565b92505060406111b886828701611032565b9150509250925092565b6000602082840312156111d8576111d761197c565b5b60006111e684828501611032565b91505092915050565b60006111fb8383611285565b60408301905092915050565b600061121383836114cc565b60208301905092915050565b61122881611886565b82525050565b6112378161174e565b61124181846117ae565b925061124c82611720565b8060005b8381101561127d57815161126487826111ef565b965061126f8361177a565b925050600181019050611250565b505050505050565b61128e81611759565b61129881846117b9565b92506112a38261172a565b8060005b838110156112d45781516112bb8782611207565b96506112c683611787565b9250506001810190506112a7565b505050505050565b6112e581611759565b6112ef81846117c4565b92506112fa8261172a565b8060005b8381101561132b5781516113128782611207565b965061131d83611787565b9250506001810190506112fe565b505050505050565b61133c81611764565b61134681846117cf565b925061135182611734565b8060005b838110156113825781516113698782611207565b965061137483611794565b925050600181019050611355565b505050505050565b60006113958261176f565b61139f81856117da565b93506113aa8361173e565b8060005b838110156113db5781516113c28882611207565b97506113cd836117a1565b9250506001810190506113ae565b5085935050505092915050565b6113f181611898565b82525050565b61140861140382611898565b61190f565b82525050565b611417816118d9565b82525050565b600061142a6036836117eb565b915061143582611981565b604082019050919050565b600061144d6026836117eb565b9150611458826119d0565b604082019050919050565b60006114706012836117eb565b915061147b82611a1f565b602082019050919050565b6000611493601c836117eb565b915061149e82611a48565b602082019050919050565b60006114b66020836117eb565b91506114c182611a71565b602082019050919050565b6114d5816118c2565b82525050565b6114e4816118c2565b82525050565b6114f3816118cc565b82525050565b600061150582846113f7565b60208201915081905092915050565b6000602082019050611529600083018461121f565b92915050565b60006101808201905061154560008301876112dc565b611552604083018661122e565b61155f60c08301856112dc565b61156d610100830184611333565b95945050505050565b60006020820190508181036000830152611590818461138a565b905092915050565b60006020820190506115ad60008301846113e8565b92915050565b60006040820190506115c860008301856113e8565b6115d560208301846114db565b9392505050565b600060a0820190506115f160008301886113e8565b6115fe60208301876114db565b61160b60408301866114db565b61161860608301856114db565b61162560808301846114db565b9695505050505050565b6000602082019050611644600083018461140e565b92915050565b600060208201905081810360008301526116638161141d565b9050919050565b6000602082019050818103600083015261168381611440565b9050919050565b600060208201905081810360008301526116a381611463565b9050919050565b600060208201905081810360008301526116c381611486565b9050919050565b600060208201905081810360008301526116e3816114a9565b9050919050565b60006020820190506116ff60008301846114db565b92915050565b600060208201905061171a60008301846114ea565b92915050565b6000819050919050565b6000819050919050565b6000819050919050565b6000819050602082019050919050565b600060029050919050565b600060029050919050565b600060049050919050565b600081519050919050565b6000602082019050919050565b6000602082019050919050565b6000602082019050919050565b6000602082019050919050565b600081905092915050565b600081905092915050565b600081905092915050565b600081905092915050565b600082825260208201905092915050565b600082825260208201905092915050565b6000611807826118c2565b9150611812836118c2565b9250827fffffffffffffffffffffffffffffffffffffffffffffffffffffffffffffffff0382111561184757611846611919565b5b828201905092915050565b600061185d826118c2565b9150611868836118c2565b92508282101561187b5761187a611919565b5b828203905092915050565b6000611891826118a2565b9050919050565b6000819050919050565b600073ffffffffffffffffffffffffffffffffffffffff82169050919050565b6000819050919050565b600060ff82169050919050565b60006118e4826118eb565b9050919050565b60006118f6826118fd565b9050919050565b6000611908826118a2565b9050919050565b6000819050919050565b7f4e487b7100000000000000000000000000000000000000000000000000000000600052601160045260246000fd5b7f4e487b7100000000000000000000000000000000000000000000000000000000600052603260045260246000fd5b600080fd5b600080fd5b7f53656d6170686f7265436f72653a20796f752063616e6e6f742075736520746860008201527f652073616d65206e756c6c696669657220747769636500000000000000000000602082015250565b7f4f776e61626c653a206e6577206f776e657220697320746865207a65726f206160008201527f6464726573730000000000000000000000000000000000000000000000000000602082015250565b7f4e6f7420656e6f7567682062616c616e63650000000000000000000000000000600082015250565b7f596f75722068617368636f6d6d69746d656e742069732077726f6e6700000000600082015250565b7f4f776e61626c653a2063616c6c6572206973206e6f7420746865206f776e6572600082015250565b611aa381611886565b8114611aae57600080fd5b50565b611aba81611898565b8114611ac557600080fd5b50565b611ad1816118c2565b8114611adc57600080fd5b5056fea2646970667358221220c502a0310eeca7082e087fb265c9b60e8261dd9fc5cecc43f0f45a9a8ae7320864736f6c63430008070033",
  "linkReferences": {},
  "deployedLinkReferences": {}
}